{"abi":[{"type":"constructor","inputs":[{"name":"_owner","type":"address","internalType":"address"},{"name":"_implementation","type":"address","internalType":"address"}],"stateMutability":"nonpayable"},{"type":"function","name":"allDAOs","inputs":[{"name":"","type":"uint256","internalType":"uint256"}],"outputs":[{"name":"","type":"address","internalType":"address"}],"stateMutability":"view"},{"type":"function","name":"createDAO","inputs":[{"name":"name","type":"string","internalType":"string"},{"name":"description","type":"string","internalType":"string"},{"name":"location","type":"string","internalType":"string"},{"name":"coordinates","type":"string","internalType":"string"},{"name":"postalCode","type":"string","internalType":"string"},{"name":"maxMembership","type":"uint256","internalType":"uint256"},{"name":"usdcAddress","type":"address","internalType":"address"}],"outputs":[{"name":"daoAddress","type":"address","internalType":"address"}],"stateMutability":"nonpayable"},{"type":"function","name":"daoInfo","inputs":[{"name":"","type":"address","internalType":"address"}],"outputs":[{"name":"name","type":"string","internalType":"string"},{"name":"location","type":"string","internalType":"string"},{"name":"creator","type":"address","internalType":"address"},{"name":"createdAt","type":"uint256","internalType":"uint256"},{"name":"isActive","type":"bool","internalType":"bool"}],"stateMutability":"view"},{"type":"function","name":"deactivateDAO","inputs":[{"name":"daoAddress","type":"address","internalType":"address"}],"outputs":[],"stateMutability":"nonpayable"},{"type":"function","name":"getActiveDAOs","inputs":[],"outputs":[{"name":"","type":"address[]","internalType":"address[]"}],"stateMutability":"view"},{"type":"function","name":"getAllDAOs","inputs":[],"outputs":[{"name":"","type":"address[]","internalType":"address[]"}],"stateMutability":"view"},{"type":"function","name":"getDAOMetadata","inputs":[{"name":"daoAddress","type":"address","internalType":"address"}],"outputs":[{"name":"","type":"tuple","internalType":"struct CivicVaultFactory.DAOMetadata","components":[{"name":"name","type":"string","internalType":"string"},{"name":"location","type":"string","internalType":"string"},{"name":"creator","type":"address","internalType":"address"},{"name":"createdAt","type":"uint256","internalType":"uint256"},{"name":"isActive","type":"bool","internalType":"bool"}]}],"stateMutability":"view"},{"type":"function","name":"implementation","inputs":[],"outputs":[{"name":"","type":"address","internalType":"address"}],"stateMutability":"view"},{"type":"function","name":"isDAO","inputs":[{"name":"","type":"address","internalType":"address"}],"outputs":[{"name":"","type":"bool","internalType":"bool"}],"stateMutability":"view"},{"type":"function","name":"isValidDAO","inputs":[{"name":"daoAddress","type":"address","internalType":"address"}],"outputs":[{"name":"","type":"bool","internalType":"bool"}],"stateMutability":"view"},{"type":"function","name":"owner","inputs":[],"outputs":[{"name":"","type":"address","internalType":"address"}],"stateMutability":"view"},{"type":"function","name":"reactivateDAO","inputs":[{"name":"daoAddress","type":"address","internalType":"address"}],"outputs":[],"stateMutability":"nonpayable"},{"type":"function","name":"renounceOwnership","inputs":[],"outputs":[],"stateMutability":"nonpayable"},{"type":"function","name":"totalDAOCount","inputs":[],"outputs":[{"name":"","type":"uint256","internalType":"uint256"}],"stateMutability":"view"},{"type":"function","name":"transferOwnership","inputs":[{"name":"newOwner","type":"address","internalType":"address"}],"outputs":[],"stateMutability":"nonpayable"},{"type":"event","name":"DAOCreated","inputs":[{"name":"daoAddress","type":"address","indexed":true,"internalType":"address"},{"name":"name","type":"string","indexed":false,"internalType":"string"},{"name":"location","type":"string","indexed":false,"internalType":"string"},{"name":"creator","type":"address","indexed":true,"internalType":"address"},{"name":"timestamp","type":"uint256","indexed":false,"internalType":"uint256"}],"anonymous":false},{"type":"event","name":"DAODeactivated","inputs":[{"name":"daoAddress","type":"address","indexed":true,"internalType":"address"},{"name":"timestamp","type":"uint256","indexed":false,"internalType":"uint256"}],"anonymous":false},{"type":"event","name":"DAOReactivated","inputs":[{"name":"daoAddress","type":"address","indexed":true,"internalType":"address"},{"name":"timestamp","type":"uint256","indexed":false,"internalType":"uint256"}],"anonymous":false},{"type":"event","name":"OwnershipTransferred","inputs":[{"name":"previousOwner","type":"address","indexed":true,"internalType":"address"},{"name":"newOwner","type":"address","indexed":true,"internalType":"address"}],"anonymous":false},{"type":"error","name":"FailedDeployment","inputs":[]},{"type":"error","name":"InsufficientBalance","inputs":[{"name":"balance","type":"uint256","internalType":"uint256"},{"name":"needed","type":"uint256","internalType":"uint256"}]},{"type":"error","name":"OwnableInvalidOwner","inputs":[{"name":"owner","type":"address","internalType":"address"}]},{"type":"error","name":"OwnableUnauthorizedAccount","inputs":[{"name":"account","type":"address","internalType":"address"}]}],"bytecode":{"object":"0x60a03461013057601f61136438819003918201601f19168301916001600160401b0383118484101761013457808492604094855283398101031261013057610052602061004b83610148565b9201610148565b906001600160a01b0316801561011d575f80546001600160a01b031981168317825560405192916001600160a01b03909116907f8be0079c531659141344cd1fd0a4f28419497f9722a3daafe3b4186f6b6457e09080a36001600160a01b038216156100db5750608052604051611207908161015d82396080518181816103080152610bf70152f35b62461bcd60e51b815260206004820152601660248201527f496e76616c696420696d706c656d656e746174696f6e000000000000000000006044820152606490fd5b631e4fbdf760e01b5f525f60045260245ffd5b5f80fd5b634e487b7160e01b5f52604160045260245ffd5b51906001600160a01b03821682036101305756fe6080806040526004361015610012575f80fd5b5f905f3560e01c9081622a9e0114610ec35750806303caaba214610e645780633cb2c68a14610ddb57806344d4bf5914610d005780634765b01c14610c6357806350435fa414610c265780635c60da1b14610be25780636c74f61514610ac1578063715018a614610a7d5780638da5cb5b14610a565780639989b91414610914578063b4136bd8146108d2578063f0dadbce14610213578063f2fde38b146101a05763ff77a128146100c2575f80fd5b3461019d57602036600319011261019d576100db610edd565b6100e361116b565b6001600160a01b0316808252600260205260408220546101059060ff166110f0565b808252600360205260ff60046040842001541661016357808252600360205260046040832001600160ff198254161790557fed07606bbda09e31cffde4d93a31c2e65976f47dce131db31f5c4ebeae2e1ccf6020604051428152a280f35b60405162461bcd60e51b815260206004820152601260248201527144414f20616c72656164792061637469766560701b6044820152606490fd5b80fd5b503461019d57602036600319011261019d576101ba610edd565b6101c261116b565b6001600160a01b031680156101ff5781546001600160a01b03198116821783556001600160a01b03165f5160206111b25f395f51905f528380a380f35b631e4fbdf760e01b82526004829052602482fd5b50346107d75760e03660031901126107d7576004356001600160401b0381116107d75761024490369060040161109b565b6024356001600160401b0381116107d75761026390369060040161109b565b906044356001600160401b0381116107d75761028390369060040161109b565b6064356001600160401b0381116107d7576102a290369060040161109b565b926084356001600160401b0381116107d7576102c290369060040161109b565b60a4359460c4356001600160a01b03811692908390036107d75785511561089d578451156108645786156108265782156107ea576e5af43d82803e903d91602b57fd5bf37f0000000000000000000000000000000000000000000000000000000000000000763d602d80600a3d3981f3363d3d373d3d3d363d7300000062ffffff8260881c16175f5260781b1760205260018060a01b03603760095ff0169687156107db57873b156107d7575f936103f588936103e36103ad966103d16103bf6040519b8c9a8b9a6327e5ca0560e21b8c523360048d015261010060248d01526101048c019061105f565b8a81036003190160448c01529061105f565b8881036003190160648a01528c61105f565b8781036003190160848901529061105f565b8581036003190160a48701529061105f565b9160c484015260e4830152038183885af180156107cc576107b7575b50600154600160401b8110156107a3578060016104319201600155611083565b81546001600160a01b0360039290921b91821b19169085901b17905582845260026020526040808520805460ff191660011790555161046f81610f6d565b8281526020810190828252604081013381526060820190428252608083019360018552878952600360205260408920935180519060018060401b03821161078f5781906104bc8754610f35565b601f8111610734575b50602090601f83116001146106d2578c926106c7575b50508160011b915f199060031b1c19161784555b51805190986001850191906001600160401b0382116106b3576105128354610f35565b601f8111610661575b5060209a8a98979695949392918c91906001601f8511146105e4579280600496935f5160206111925f395f51905f529b9996936105c49b9996926105d9575b50508160011b915f199060031b1c19161790555b600283019060018060a01b0390511660018060a01b0319825416179055516003820155019051151560ff801983541691161790556105b76040519560608752606087019061105f565b908582038887015261105f565b924260408201528033940390a3604051908152f35b015190505f8061055a565b9190601f198416858452828420935b818110610647575093600496935f5160206111925f395f51905f529b999693600193836105c49d9b981061062f575b505050811b01905561056e565b01515f1960f88460031b161c191690555f8080610622565b8383015185558e9c50600190940193928f01928f016105f3565b8281111561051b579a83825260208220601f840160051c90602085106106ab575b81019c601f0160051c03825b81811061069d5750509a61051b565b8d810184905560010161068e565b839150610682565b634e487b7160e01b81526041600452602490fd5b015190505f806104db565b878d52818d209250601f1984168d5b81811061071c5750908460019594939210610704575b505050811b0184556104ef565b01515f1960f88460031b161c191690555f80806106f7565b929360206001819287860151815501950193016106e1565b828111156104c557909150868c5260208c20601f840160051c9060208510610787575b849392601f0160051c82900391018d805b838210610777575050506104c5565b818301558594506001018e610768565b8d9150610757565b634e487b7160e01b8b52604160045260248bfd5b634e487b7160e01b85526041600452602485fd5b6107c49194505f90610f9c565b5f925f610411565b6040513d5f823e3d90fd5b5f80fd5b63b06ebf3d60e01b5f5260045ffd5b60405162461bcd60e51b8152602060048201526014602482015273496e76616c69642055534443206164647265737360601b6044820152606490fd5b60405162461bcd60e51b81526020600482015260166024820152750496e76616c6964206d6178206d656d626572736869760541b6044820152606490fd5b60405162461bcd60e51b8152602060048201526011602482015270131bd8d85d1a5bdb881c995c5d5a5c9959607a1b6044820152606490fd5b60405162461bcd60e51b815260206004820152600d60248201526c13985b59481c995c5d5a5c9959609a1b6044820152606490fd5b346107d75760203660031901126107d7576004356001548110156107d7576108fb602091611083565b905460405160039290921b1c6001600160a01b03168152f35b346107d7575f3660031901126107d7576001545f805b828110610a0b575061093b81611154565b906109496040519283610f9c565b808252610958601f1991611154565b013660208301375f915f5b81811061097c57604051806109788582610ef3565b0390f35b61098581611083565b60018060a01b0391549060031b1c165f52600360205260ff600460405f200154166109b3575b600101610963565b926109bd84611083565b9054845160039290921b1c6001600160a01b0316908210156109f757816109ef91602060019460051b87010152611132565b9390506109ab565b634e487b7160e01b5f52603260045260245ffd5b610a1481611083565b60018060a01b0391549060031b1c165f52600360205260ff600460405f20015416610a42575b60010161092a565b90610a4e600191611132565b919050610a3a565b346107d7575f3660031901126107d7575f546040516001600160a01b039091168152602090f35b346107d7575f3660031901126107d757610a9561116b565b5f80546001600160a01b0319811682556001600160a01b03165f5160206111b25f395f51905f528280a3005b346107d75760203660031901126107d757610ada610edd565b5f6080604051610ae981610f6d565b6060815260606020820152826040820152826060820152015260018060a01b0316805f526002602052610b2260ff60405f2054166110f0565b5f526003602052610bad60405f2060405190610b3d82610f6d565b610b4681610fbf565b8252610b5460018201610fbf565b6020830190815260018060a01b036002830154169160408401928352610bc060ff60046003840154936060880194855201541692608086019315158452604051968796602088525160a0602089015260c088019061105f565b9051868203601f1901604088015261105f565b92516001600160a01b0316606085015251608084015251151560a08301520390f35b346107d7575f3660031901126107d7576040517f00000000000000000000000000000000000000000000000000000000000000006001600160a01b03168152602090f35b346107d75760203660031901126107d7576001600160a01b03610c47610edd565b165f526002602052602060ff60405f2054166040519015158152f35b346107d75760203660031901126107d7576001600160a01b03610c84610edd565b165f526003602052610cdc60405f20610c9c81610fbf565b90610ca960018201610fbf565b60018060a01b0360028301541691610cea60ff60046003840154930154169260405196879660a0885260a088019061105f565b90868203602088015261105f565b9260408501526060840152151560808301520390f35b346107d75760203660031901126107d757610d19610edd565b610d2161116b565b6001600160a01b03165f81815260026020526040902054610d449060ff166110f0565b805f52600360205260ff600460405f2001541615610d9f57805f526003602052600460405f200160ff1981541690557fa19e260efe83eebe9eb3750e285d53ce38cbe86d1a91860c0bc07298715a63dd6020604051428152a2005b60405162461bcd60e51b815260206004820152601460248201527344414f20616c726561647920696e61637469766560601b6044820152606490fd5b346107d7575f3660031901126107d757604051600180548083525f91825260208301917fb10e2d527612073b26eecdfd717e6a320cf44b4afac2b0732d9fcbe2b7fa0cf691905b818110610e455761097885610e3981870382610f9c565b60405191829182610ef3565b82546001600160a01b0316845260209093019260019283019201610e22565b346107d75760203660031901126107d7576001600160a01b03610e85610edd565b16805f52600260205260ff60405f20541680610ea9575b6020906040519015158152f35b505f526003602052602060ff600460405f20015416610e9c565b346107d7575f3660031901126107d7576020906001548152f35b600435906001600160a01b03821682036107d757565b60206040818301928281528451809452019201905f5b818110610f165750505090565b82516001600160a01b0316845260209384019390920191600101610f09565b90600182811c92168015610f63575b6020831014610f4f57565b634e487b7160e01b5f52602260045260245ffd5b91607f1691610f44565b60a081019081106001600160401b03821117610f8857604052565b634e487b7160e01b5f52604160045260245ffd5b601f909101601f19168101906001600160401b03821190821017610f8857604052565b9060405191825f825492610fd284610f35565b808452936001811690811561103d5750600114610ff9575b50610ff792500383610f9c565b565b90505f9291925260205f20905f915b818310611021575050906020610ff7928201015f610fea565b6020919350806001915483858901015201910190918492611008565b905060209250610ff794915060ff191682840152151560051b8201015f610fea565b805180835260209291819084018484015e5f828201840152601f01601f1916010190565b6001548110156109f75760015f5260205f2001905f90565b81601f820112156107d7578035906001600160401b038211610f8857604051926110cf601f8401601f191660200185610f9c565b828452602083830101116107d757815f926020809301838601378301015290565b156110f757565b60405162461bcd60e51b8152602060048201526013602482015272496e76616c69642044414f206164647265737360681b6044820152606490fd5b5f1981146111405760010190565b634e487b7160e01b5f52601160045260245ffd5b6001600160401b038111610f885760051b60200190565b5f546001600160a01b0316330361117e57565b63118cdaa760e01b5f523360045260245ffdfe9ff434f93187d321b2fc39a456d6666058f471a462fa6215ef440d1ef51f092a8be0079c531659141344cd1fd0a4f28419497f9722a3daafe3b4186f6b6457e0a2646970667358221220174927309d14f7607f4d0781f98f3db4be4472b24829794b330b51a30ba5513f64736f6c63430008210033","linkReferences":{}},"methodIdentifiers":{"allDAOs(uint256)":"b4136bd8","createDAO(string,string,string,string,string,uint256,address)":"f0dadbce","daoInfo(address)":"4765b01c","deactivateDAO(address)":"44d4bf59","getActiveDAOs()":"9989b914","getAllDAOs()":"3cb2c68a","getDAOMetadata(address)":"6c74f615","implementation()":"5c60da1b","isDAO(address)":"50435fa4","isValidDAO(address)":"03caaba2","owner()":"8da5cb5b","reactivateDAO(address)":"ff77a128","renounceOwnership()":"715018a6","totalDAOCount()":"002a9e01","transferOwnership(address)":"f2fde38b"},"id":39}