{"abi":[{"type":"constructor","inputs":[],"stateMutability":"nonpayable"},{"type":"function","name":"MAX_EXTENSIONS","inputs":[],"outputs":[{"name":"","type":"uint256","internalType":"uint256"}],"stateMutability":"view"},{"type":"function","name":"PHASE1_PERCENT","inputs":[],"outputs":[{"name":"","type":"uint256","internalType":"uint256"}],"stateMutability":"view"},{"type":"function","name":"PHASE2_PERCENT","inputs":[],"outputs":[{"name":"","type":"uint256","internalType":"uint256"}],"stateMutability":"view"},{"type":"function","name":"PHASE3_PERCENT","inputs":[],"outputs":[{"name":"","type":"uint256","internalType":"uint256"}],"stateMutability":"view"},{"type":"function","name":"REQUIRED_ADMIN_COUNT","inputs":[],"outputs":[{"name":"","type":"uint256","internalType":"uint256"}],"stateMutability":"view"},{"type":"function","name":"REQUIRED_YIELD_APPROVALS","inputs":[],"outputs":[{"name":"","type":"uint256","internalType":"uint256"}],"stateMutability":"view"},{"type":"function","name":"activateInvestment","inputs":[{"name":"investmentId","type":"uint256","internalType":"uint256"}],"outputs":[],"stateMutability":"nonpayable"},{"type":"function","name":"activeInvestmentCount","inputs":[],"outputs":[{"name":"","type":"uint256","internalType":"uint256"}],"stateMutability":"view"},{"type":"function","name":"addAdmin","inputs":[{"name":"admin","type":"address","internalType":"address"}],"outputs":[],"stateMutability":"nonpayable"},{"type":"function","name":"addFinanceManager","inputs":[{"name":"manager","type":"address","internalType":"address"}],"outputs":[],"stateMutability":"nonpayable"},{"type":"function","name":"addMember","inputs":[{"name":"wallet","type":"address","internalType":"address"},{"name":"kycProofHash","type":"bytes32","internalType":"bytes32"}],"outputs":[],"stateMutability":"nonpayable"},{"type":"function","name":"admins","inputs":[{"name":"","type":"uint256","internalType":"uint256"}],"outputs":[{"name":"","type":"address","internalType":"address"}],"stateMutability":"view"},{"type":"function","name":"approveYieldDeposit","inputs":[{"name":"proposalId","type":"uint256","internalType":"uint256"}],"outputs":[],"stateMutability":"nonpayable"},{"type":"function","name":"batchAddMembers","inputs":[{"name":"wallets","type":"address[]","internalType":"address[]"},{"name":"kycProofHashes","type":"bytes32[]","internalType":"bytes32[]"}],"outputs":[],"stateMutability":"nonpayable"},{"type":"function","name":"claimYield","inputs":[{"name":"investmentId","type":"uint256","internalType":"uint256"}],"outputs":[],"stateMutability":"nonpayable"},{"type":"function","name":"closeInvestment","inputs":[{"name":"investmentId","type":"uint256","internalType":"uint256"}],"outputs":[],"stateMutability":"nonpayable"},{"type":"function","name":"coordinates","inputs":[],"outputs":[{"name":"","type":"string","internalType":"string"}],"stateMutability":"view"},{"type":"function","name":"createInvestment","inputs":[{"name":"_name","type":"string","internalType":"string"},{"name":"category","type":"uint8","internalType":"enum ICivicVault.Category"},{"name":"fundNeeded","type":"uint256","internalType":"uint256"},{"name":"expectedYield","type":"uint256","internalType":"uint256"},{"name":"grade","type":"uint8","internalType":"enum ICivicVault.Grade"},{"name":"deadline","type":"uint256","internalType":"uint256"},{"name":"documentCIDs","type":"string[]","internalType":"string[]"}],"outputs":[{"name":"investmentId","type":"uint256","internalType":"uint256"}],"stateMutability":"nonpayable"},{"type":"function","name":"creator","inputs":[],"outputs":[{"name":"","type":"address","internalType":"address"}],"stateMutability":"view"},{"type":"function","name":"description","inputs":[],"outputs":[{"name":"","type":"string","internalType":"string"}],"stateMutability":"view"},{"type":"function","name":"escrowTotal","inputs":[{"name":"","type":"uint256","internalType":"uint256"}],"outputs":[{"name":"","type":"uint256","internalType":"uint256"}],"stateMutability":"view"},{"type":"function","name":"escrowedAmount","inputs":[{"name":"","type":"uint256","internalType":"uint256"}],"outputs":[{"name":"","type":"uint256","internalType":"uint256"}],"stateMutability":"view"},{"type":"function","name":"executeYieldDeposit","inputs":[{"name":"proposalId","type":"uint256","internalType":"uint256"}],"outputs":[],"stateMutability":"nonpayable"},{"type":"function","name":"exitDAO","inputs":[],"outputs":[],"stateMutability":"nonpayable"},{"type":"function","name":"extendDeadline","inputs":[{"name":"investmentId","type":"uint256","internalType":"uint256"},{"name":"additionalDays","type":"uint256","internalType":"uint256"}],"outputs":[],"stateMutability":"nonpayable"},{"type":"function","name":"getAdmins","inputs":[],"outputs":[{"name":"","type":"address[]","internalType":"address[]"}],"stateMutability":"view"},{"type":"function","name":"getAllMembers","inputs":[],"outputs":[{"name":"","type":"address[]","internalType":"address[]"}],"stateMutability":"view"},{"type":"function","name":"getClaimableYield","inputs":[{"name":"investmentId","type":"uint256","internalType":"uint256"},{"name":"voter","type":"address","internalType":"address"}],"outputs":[{"name":"","type":"uint256","internalType":"uint256"}],"stateMutability":"view"},{"type":"function","name":"getInvestment","inputs":[{"name":"investmentId","type":"uint256","internalType":"uint256"}],"outputs":[{"name":"","type":"tuple","internalType":"struct ICivicVault.Investment","components":[{"name":"id","type":"uint256","internalType":"uint256"},{"name":"name","type":"string","internalType":"string"},{"name":"status","type":"uint8","internalType":"enum ICivicVault.Status"},{"name":"category","type":"uint8","internalType":"enum ICivicVault.Category"},{"name":"deadline","type":"uint256","internalType":"uint256"},{"name":"upvotes","type":"uint256","internalType":"uint256"},{"name":"downvotes","type":"uint256","internalType":"uint256"},{"name":"fundNeeded","type":"uint256","internalType":"uint256"},{"name":"expectedYield","type":"uint256","internalType":"uint256"},{"name":"grade","type":"uint8","internalType":"enum ICivicVault.Grade"},{"name":"documentCIDs","type":"string[]","internalType":"string[]"},{"name":"totalYieldGenerated","type":"uint256","internalType":"uint256"},{"name":"totalYieldDistributed","type":"uint256","internalType":"uint256"},{"name":"extensionCount","type":"uint256","internalType":"uint256"},{"name":"createdAt","type":"uint256","internalType":"uint256"},{"name":"createdBy","type":"address","internalType":"address"}]}],"stateMutability":"view"},{"type":"function","name":"getInvestmentsByStatus","inputs":[{"name":"status","type":"uint8","internalType":"enum ICivicVault.Status"}],"outputs":[{"name":"","type":"uint256[]","internalType":"uint256[]"}],"stateMutability":"view"},{"type":"function","name":"getVote","inputs":[{"name":"investmentId","type":"uint256","internalType":"uint256"},{"name":"voter","type":"address","internalType":"address"}],"outputs":[{"name":"","type":"tuple","internalType":"struct ICivicVault.Vote","components":[{"name":"voter","type":"address","internalType":"address"},{"name":"investmentId","type":"uint256","internalType":"uint256"},{"name":"numberOfVotes","type":"uint256","internalType":"uint256"},{"name":"voteValue","type":"uint8","internalType":"uint8"},{"name":"timestamp","type":"uint256","internalType":"uint256"},{"name":"hasClaimedYield","type":"bool","internalType":"bool"},{"name":"yieldClaimed","type":"uint256","internalType":"uint256"}]}],"stateMutability":"view"},{"type":"function","name":"getWithdrawableAmount","inputs":[{"name":"investmentId","type":"uint256","internalType":"uint256"},{"name":"voter","type":"address","internalType":"address"}],"outputs":[{"name":"","type":"uint256","internalType":"uint256"}],"stateMutability":"view"},{"type":"function","name":"getYieldDistribution","inputs":[{"name":"investmentId","type":"uint256","internalType":"uint256"}],"outputs":[{"name":"","type":"tuple","internalType":"struct ICivicVault.YieldDistribution","components":[{"name":"investmentId","type":"uint256","internalType":"uint256"},{"name":"totalAmount","type":"uint256","internalType":"uint256"},{"name":"distributedAmount","type":"uint256","internalType":"uint256"},{"name":"remainingAmount","type":"uint256","internalType":"uint256"},{"name":"expenseReportCID","type":"string","internalType":"string"},{"name":"timestamp","type":"uint256","internalType":"uint256"}]}],"stateMutability":"view"},{"type":"function","name":"getYieldProposal","inputs":[{"name":"proposalId","type":"uint256","internalType":"uint256"}],"outputs":[{"name":"","type":"tuple","internalType":"struct ICivicVault.YieldProposal","components":[{"name":"id","type":"uint256","internalType":"uint256"},{"name":"investmentId","type":"uint256","internalType":"uint256"},{"name":"amount","type":"uint256","internalType":"uint256"},{"name":"expenseReportCID","type":"string","internalType":"string"},{"name":"proposer","type":"address","internalType":"address"},{"name":"approvals","type":"uint256","internalType":"uint256"},{"name":"executed","type":"bool","internalType":"bool"},{"name":"createdAt","type":"uint256","internalType":"uint256"}]}],"stateMutability":"view"},{"type":"function","name":"hasApprovedProposal","inputs":[{"name":"proposalId","type":"uint256","internalType":"uint256"},{"name":"admin","type":"address","internalType":"address"}],"outputs":[{"name":"","type":"bool","internalType":"bool"}],"stateMutability":"view"},{"type":"function","name":"initialize","inputs":[{"name":"_creator","type":"address","internalType":"address"},{"name":"_name","type":"string","internalType":"string"},{"name":"_description","type":"string","internalType":"string"},{"name":"_location","type":"string","internalType":"string"},{"name":"_coordinates","type":"string","internalType":"string"},{"name":"_postalCode","type":"string","internalType":"string"},{"name":"_maxMembership","type":"uint256","internalType":"uint256"},{"name":"_usdcAddress","type":"address","internalType":"address"}],"outputs":[],"stateMutability":"nonpayable"},{"type":"function","name":"investmentCount","inputs":[],"outputs":[{"name":"","type":"uint256","internalType":"uint256"}],"stateMutability":"view"},{"type":"function","name":"investments","inputs":[{"name":"","type":"uint256","internalType":"uint256"}],"outputs":[{"name":"id","type":"uint256","internalType":"uint256"},{"name":"name","type":"string","internalType":"string"},{"name":"status","type":"uint8","internalType":"enum ICivicVault.Status"},{"name":"category","type":"uint8","internalType":"enum ICivicVault.Category"},{"name":"deadline","type":"uint256","internalType":"uint256"},{"name":"upvotes","type":"uint256","internalType":"uint256"},{"name":"downvotes","type":"uint256","internalType":"uint256"},{"name":"fundNeeded","type":"uint256","internalType":"uint256"},{"name":"expectedYield","type":"uint256","internalType":"uint256"},{"name":"grade","type":"uint8","internalType":"enum ICivicVault.Grade"},{"name":"totalYieldGenerated","type":"uint256","internalType":"uint256"},{"name":"totalYieldDistributed","type":"uint256","internalType":"uint256"},{"name":"extensionCount","type":"uint256","internalType":"uint256"},{"name":"createdAt","type":"uint256","internalType":"uint256"},{"name":"createdBy","type":"address","internalType":"address"}],"stateMutability":"view"},{"type":"function","name":"isAdmin","inputs":[{"name":"","type":"address","internalType":"address"}],"outputs":[{"name":"","type":"bool","internalType":"bool"}],"stateMutability":"view"},{"type":"function","name":"isFinanceManager","inputs":[{"name":"","type":"address","internalType":"address"}],"outputs":[{"name":"","type":"bool","internalType":"bool"}],"stateMutability":"view"},{"type":"function","name":"isVerifiedMember","inputs":[{"name":"wallet","type":"address","internalType":"address"}],"outputs":[{"name":"","type":"bool","internalType":"bool"}],"stateMutability":"view"},{"type":"function","name":"location","inputs":[],"outputs":[{"name":"","type":"string","internalType":"string"}],"stateMutability":"view"},{"type":"function","name":"logoURI","inputs":[],"outputs":[{"name":"","type":"string","internalType":"string"}],"stateMutability":"view"},{"type":"function","name":"markInvestmentIncomplete","inputs":[{"name":"investmentId","type":"uint256","internalType":"uint256"}],"outputs":[],"stateMutability":"nonpayable"},{"type":"function","name":"maxMembership","inputs":[],"outputs":[{"name":"","type":"uint256","internalType":"uint256"}],"stateMutability":"view"},{"type":"function","name":"memberAddresses","inputs":[{"name":"","type":"uint256","internalType":"uint256"}],"outputs":[{"name":"","type":"address","internalType":"address"}],"stateMutability":"view"},{"type":"function","name":"memberCount","inputs":[],"outputs":[{"name":"","type":"uint256","internalType":"uint256"}],"stateMutability":"view"},{"type":"function","name":"members","inputs":[{"name":"","type":"address","internalType":"address"}],"outputs":[{"name":"wallet","type":"address","internalType":"address"},{"name":"kycVerified","type":"bool","internalType":"bool"},{"name":"kycProofHash","type":"bytes32","internalType":"bytes32"},{"name":"joinedAt","type":"uint256","internalType":"uint256"},{"name":"isActive","type":"bool","internalType":"bool"}],"stateMutability":"view"},{"type":"function","name":"name","inputs":[],"outputs":[{"name":"","type":"string","internalType":"string"}],"stateMutability":"view"},{"type":"function","name":"pause","inputs":[],"outputs":[],"stateMutability":"nonpayable"},{"type":"function","name":"paused","inputs":[],"outputs":[{"name":"","type":"bool","internalType":"bool"}],"stateMutability":"view"},{"type":"function","name":"postalCode","inputs":[],"outputs":[{"name":"","type":"string","internalType":"string"}],"stateMutability":"view"},{"type":"function","name":"proposeYieldDeposit","inputs":[{"name":"investmentId","type":"uint256","internalType":"uint256"},{"name":"yieldAmount","type":"uint256","internalType":"uint256"},{"name":"expenseReportCID","type":"string","internalType":"string"}],"outputs":[{"name":"","type":"uint256","internalType":"uint256"}],"stateMutability":"nonpayable"},{"type":"function","name":"releaseNextPhase","inputs":[{"name":"investmentId","type":"uint256","internalType":"uint256"},{"name":"recipient","type":"address","internalType":"address"}],"outputs":[],"stateMutability":"nonpayable"},{"type":"function","name":"releasePhaseCompleted","inputs":[{"name":"","type":"uint256","internalType":"uint256"}],"outputs":[{"name":"","type":"uint8","internalType":"uint8"}],"stateMutability":"view"},{"type":"function","name":"removeAdmin","inputs":[{"name":"admin","type":"address","internalType":"address"}],"outputs":[],"stateMutability":"nonpayable"},{"type":"function","name":"removeFinanceManager","inputs":[{"name":"manager","type":"address","internalType":"address"}],"outputs":[],"stateMutability":"nonpayable"},{"type":"function","name":"removeMember","inputs":[{"name":"wallet","type":"address","internalType":"address"}],"outputs":[],"stateMutability":"nonpayable"},{"type":"function","name":"setYieldGracePeriod","inputs":[{"name":"newPeriod","type":"uint256","internalType":"uint256"}],"outputs":[],"stateMutability":"nonpayable"},{"type":"function","name":"sweepUnclaimedYield","inputs":[{"name":"investmentId","type":"uint256","internalType":"uint256"},{"name":"recipient","type":"address","internalType":"address"}],"outputs":[],"stateMutability":"nonpayable"},{"type":"function","name":"totalValueLocked","inputs":[],"outputs":[{"name":"","type":"uint256","internalType":"uint256"}],"stateMutability":"view"},{"type":"function","name":"unpause","inputs":[],"outputs":[],"stateMutability":"nonpayable"},{"type":"function","name":"updateDAOInfo","inputs":[{"name":"newDescription","type":"string","internalType":"string"},{"name":"newLogoURI","type":"string","internalType":"string"}],"outputs":[],"stateMutability":"nonpayable"},{"type":"function","name":"updateInvestmentDocuments","inputs":[{"name":"investmentId","type":"uint256","internalType":"uint256"},{"name":"newDocumentCIDs","type":"string[]","internalType":"string[]"}],"outputs":[],"stateMutability":"nonpayable"},{"type":"function","name":"updateMemberKYCHash","inputs":[{"name":"wallet","type":"address","internalType":"address"},{"name":"newHash","type":"bytes32","internalType":"bytes32"}],"outputs":[],"stateMutability":"nonpayable"},{"type":"function","name":"usdcAddress","inputs":[],"outputs":[{"name":"","type":"address","internalType":"address"}],"stateMutability":"view"},{"type":"function","name":"verifyMemberKYC","inputs":[{"name":"wallet","type":"address","internalType":"address"}],"outputs":[],"stateMutability":"nonpayable"},{"type":"function","name":"vote","inputs":[{"name":"investmentId","type":"uint256","internalType":"uint256"},{"name":"numberOfVotes","type":"uint256","internalType":"uint256"},{"name":"voteValue","type":"uint8","internalType":"uint8"}],"outputs":[],"stateMutability":"nonpayable"},{"type":"function","name":"votes","inputs":[{"name":"","type":"uint256","internalType":"uint256"},{"name":"","type":"address","internalType":"address"}],"outputs":[{"name":"voter","type":"address","internalType":"address"},{"name":"investmentId","type":"uint256","internalType":"uint256"},{"name":"numberOfVotes","type":"uint256","internalType":"uint256"},{"name":"voteValue","type":"uint8","internalType":"uint8"},{"name":"timestamp","type":"uint256","internalType":"uint256"},{"name":"hasClaimedYield","type":"bool","internalType":"bool"},{"name":"yieldClaimed","type":"uint256","internalType":"uint256"}],"stateMutability":"view"},{"type":"function","name":"withdrawStake","inputs":[{"name":"investmentId","type":"uint256","internalType":"uint256"}],"outputs":[],"stateMutability":"nonpayable"},{"type":"function","name":"yieldDistributions","inputs":[{"name":"","type":"uint256","internalType":"uint256"}],"outputs":[{"name":"investmentId","type":"uint256","internalType":"uint256"},{"name":"totalAmount","type":"uint256","internalType":"uint256"},{"name":"distributedAmount","type":"uint256","internalType":"uint256"},{"name":"remainingAmount","type":"uint256","internalType":"uint256"},{"name":"expenseReportCID","type":"string","internalType":"string"},{"name":"timestamp","type":"uint256","internalType":"uint256"}],"stateMutability":"view"},{"type":"function","name":"yieldGracePeriod","inputs":[],"outputs":[{"name":"","type":"uint256","internalType":"uint256"}],"stateMutability":"view"},{"type":"function","name":"yieldProposalApprovals","inputs":[{"name":"","type":"uint256","internalType":"uint256"},{"name":"","type":"address","internalType":"address"}],"outputs":[{"name":"","type":"bool","internalType":"bool"}],"stateMutability":"view"},{"type":"function","name":"yieldProposalCount","inputs":[],"outputs":[{"name":"","type":"uint256","internalType":"uint256"}],"stateMutability":"view"},{"type":"function","name":"yieldProposals","inputs":[{"name":"","type":"uint256","internalType":"uint256"}],"outputs":[{"name":"id","type":"uint256","internalType":"uint256"},{"name":"investmentId","type":"uint256","internalType":"uint256"},{"name":"amount","type":"uint256","internalType":"uint256"},{"name":"expenseReportCID","type":"string","internalType":"string"},{"name":"proposer","type":"address","internalType":"address"},{"name":"approvals","type":"uint256","internalType":"uint256"},{"name":"executed","type":"bool","internalType":"bool"},{"name":"createdAt","type":"uint256","internalType":"uint256"}],"stateMutability":"view"},{"type":"event","name":"ActivityLogged","inputs":[{"name":"investmentId","type":"uint256","indexed":true,"internalType":"uint256"},{"name":"eventType","type":"string","indexed":false,"internalType":"string"},{"name":"details","type":"string","indexed":false,"internalType":"string"},{"name":"timestamp","type":"uint256","indexed":false,"internalType":"uint256"}],"anonymous":false},{"type":"event","name":"AdminAdded","inputs":[{"name":"admin","type":"address","indexed":true,"internalType":"address"}],"anonymous":false},{"type":"event","name":"AdminRemoved","inputs":[{"name":"admin","type":"address","indexed":true,"internalType":"address"}],"anonymous":false},{"type":"event","name":"DAOInfoUpdated","inputs":[{"name":"newDescription","type":"string","indexed":false,"internalType":"string"},{"name":"newLogoURI","type":"string","indexed":false,"internalType":"string"},{"name":"timestamp","type":"uint256","indexed":false,"internalType":"uint256"}],"anonymous":false},{"type":"event","name":"DAOPaused","inputs":[{"name":"timestamp","type":"uint256","indexed":false,"internalType":"uint256"}],"anonymous":false},{"type":"event","name":"DAOUnpaused","inputs":[{"name":"timestamp","type":"uint256","indexed":false,"internalType":"uint256"}],"anonymous":false},{"type":"event","name":"DeadlineExtended","inputs":[{"name":"investmentId","type":"uint256","indexed":true,"internalType":"uint256"},{"name":"newDeadline","type":"uint256","indexed":false,"internalType":"uint256"},{"name":"extensionCount","type":"uint256","indexed":false,"internalType":"uint256"}],"anonymous":false},{"type":"event","name":"FinanceManagerAdded","inputs":[{"name":"manager","type":"address","indexed":true,"internalType":"address"}],"anonymous":false},{"type":"event","name":"FinanceManagerRemoved","inputs":[{"name":"manager","type":"address","indexed":true,"internalType":"address"}],"anonymous":false},{"type":"event","name":"FundsLocked","inputs":[{"name":"investmentId","type":"uint256","indexed":true,"internalType":"uint256"},{"name":"amount","type":"uint256","indexed":false,"internalType":"uint256"}],"anonymous":false},{"type":"event","name":"FundsReleased","inputs":[{"name":"investmentId","type":"uint256","indexed":true,"internalType":"uint256"},{"name":"phase","type":"uint8","indexed":false,"internalType":"uint8"},{"name":"amount","type":"uint256","indexed":false,"internalType":"uint256"},{"name":"recipient","type":"address","indexed":true,"internalType":"address"}],"anonymous":false},{"type":"event","name":"Initialized","inputs":[{"name":"version","type":"uint64","indexed":false,"internalType":"uint64"}],"anonymous":false},{"type":"event","name":"InvestmentActivated","inputs":[{"name":"investmentId","type":"uint256","indexed":true,"internalType":"uint256"},{"name":"timestamp","type":"uint256","indexed":false,"internalType":"uint256"}],"anonymous":false},{"type":"event","name":"InvestmentClosed","inputs":[{"name":"investmentId","type":"uint256","indexed":true,"internalType":"uint256"},{"name":"timestamp","type":"uint256","indexed":false,"internalType":"uint256"}],"anonymous":false},{"type":"event","name":"InvestmentCreated","inputs":[{"name":"investmentId","type":"uint256","indexed":true,"internalType":"uint256"},{"name":"name","type":"string","indexed":false,"internalType":"string"},{"name":"fundNeeded","type":"uint256","indexed":false,"internalType":"uint256"},{"name":"grade","type":"uint8","indexed":false,"internalType":"enum ICivicVault.Grade"},{"name":"deadline","type":"uint256","indexed":false,"internalType":"uint256"}],"anonymous":false},{"type":"event","name":"InvestmentDocumentsUpdated","inputs":[{"name":"investmentId","type":"uint256","indexed":true,"internalType":"uint256"},{"name":"timestamp","type":"uint256","indexed":false,"internalType":"uint256"}],"anonymous":false},{"type":"event","name":"InvestmentIncomplete","inputs":[{"name":"investmentId","type":"uint256","indexed":true,"internalType":"uint256"},{"name":"timestamp","type":"uint256","indexed":false,"internalType":"uint256"}],"anonymous":false},{"type":"event","name":"MemberAdded","inputs":[{"name":"member","type":"address","indexed":true,"internalType":"address"},{"name":"timestamp","type":"uint256","indexed":false,"internalType":"uint256"}],"anonymous":false},{"type":"event","name":"MemberExited","inputs":[{"name":"member","type":"address","indexed":true,"internalType":"address"},{"name":"timestamp","type":"uint256","indexed":false,"internalType":"uint256"}],"anonymous":false},{"type":"event","name":"MemberKYCHashUpdated","inputs":[{"name":"member","type":"address","indexed":true,"internalType":"address"},{"name":"newHash","type":"bytes32","indexed":false,"internalType":"bytes32"},{"name":"timestamp","type":"uint256","indexed":false,"internalType":"uint256"}],"anonymous":false},{"type":"event","name":"MemberKYCVerified","inputs":[{"name":"member","type":"address","indexed":true,"internalType":"address"},{"name":"timestamp","type":"uint256","indexed":false,"internalType":"uint256"}],"anonymous":false},{"type":"event","name":"MemberRemoved","inputs":[{"name":"member","type":"address","indexed":true,"internalType":"address"},{"name":"timestamp","type":"uint256","indexed":false,"internalType":"uint256"}],"anonymous":false},{"type":"event","name":"Paused","inputs":[{"name":"account","type":"address","indexed":false,"internalType":"address"}],"anonymous":false},{"type":"event","name":"StakeWithdrawn","inputs":[{"name":"investmentId","type":"uint256","indexed":true,"internalType":"uint256"},{"name":"voter","type":"address","indexed":true,"internalType":"address"},{"name":"amount","type":"uint256","indexed":false,"internalType":"uint256"}],"anonymous":false},{"type":"event","name":"UnclaimedYieldRecovered","inputs":[{"name":"investmentId","type":"uint256","indexed":true,"internalType":"uint256"},{"name":"recipient","type":"address","indexed":true,"internalType":"address"},{"name":"amount","type":"uint256","indexed":false,"internalType":"uint256"},{"name":"timestamp","type":"uint256","indexed":false,"internalType":"uint256"}],"anonymous":false},{"type":"event","name":"Unpaused","inputs":[{"name":"account","type":"address","indexed":false,"internalType":"address"}],"anonymous":false},{"type":"event","name":"VoteCast","inputs":[{"name":"investmentId","type":"uint256","indexed":true,"internalType":"uint256"},{"name":"voter","type":"address","indexed":true,"internalType":"address"},{"name":"numberOfVotes","type":"uint256","indexed":false,"internalType":"uint256"},{"name":"voteValue","type":"uint8","indexed":false,"internalType":"uint8"},{"name":"timestamp","type":"uint256","indexed":false,"internalType":"uint256"}],"anonymous":false},{"type":"event","name":"YieldClaimed","inputs":[{"name":"investmentId","type":"uint256","indexed":true,"internalType":"uint256"},{"name":"voter","type":"address","indexed":true,"internalType":"address"},{"name":"amount","type":"uint256","indexed":false,"internalType":"uint256"},{"name":"timestamp","type":"uint256","indexed":false,"internalType":"uint256"}],"anonymous":false},{"type":"event","name":"YieldDepositApproved","inputs":[{"name":"proposalId","type":"uint256","indexed":true,"internalType":"uint256"},{"name":"admin","type":"address","indexed":true,"internalType":"address"},{"name":"approvals","type":"uint256","indexed":false,"internalType":"uint256"}],"anonymous":false},{"type":"event","name":"YieldDepositExecuted","inputs":[{"name":"proposalId","type":"uint256","indexed":true,"internalType":"uint256"},{"name":"investmentId","type":"uint256","indexed":true,"internalType":"uint256"},{"name":"amount","type":"uint256","indexed":false,"internalType":"uint256"},{"name":"expenseReportCID","type":"string","indexed":false,"internalType":"string"},{"name":"timestamp","type":"uint256","indexed":false,"internalType":"uint256"}],"anonymous":false},{"type":"event","name":"YieldDepositProposed","inputs":[{"name":"proposalId","type":"uint256","indexed":true,"internalType":"uint256"},{"name":"investmentId","type":"uint256","indexed":true,"internalType":"uint256"},{"name":"amount","type":"uint256","indexed":false,"internalType":"uint256"},{"name":"proposer","type":"address","indexed":false,"internalType":"address"},{"name":"timestamp","type":"uint256","indexed":false,"internalType":"uint256"}],"anonymous":false},{"type":"event","name":"YieldDeposited","inputs":[{"name":"investmentId","type":"uint256","indexed":true,"internalType":"uint256"},{"name":"amount","type":"uint256","indexed":false,"internalType":"uint256"},{"name":"expenseReportCID","type":"string","indexed":false,"internalType":"string"},{"name":"timestamp","type":"uint256","indexed":false,"internalType":"uint256"}],"anonymous":false},{"type":"event","name":"YieldGracePeriodUpdated","inputs":[{"name":"oldPeriod","type":"uint256","indexed":false,"internalType":"uint256"},{"name":"newPeriod","type":"uint256","indexed":false,"internalType":"uint256"}],"anonymous":false},{"type":"error","name":"AllPhasesReleased","inputs":[]},{"type":"error","name":"AlreadyAdmin","inputs":[]},{"type":"error","name":"AlreadyApproved","inputs":[]},{"type":"error","name":"AlreadyExecuted","inputs":[]},{"type":"error","name":"AlreadyFinanceManager","inputs":[]},{"type":"error","name":"AlreadyMember","inputs":[]},{"type":"error","name":"AlreadyVoted","inputs":[]},{"type":"error","name":"ArrayLengthMismatch","inputs":[]},{"type":"error","name":"CannotChangeDownToUp","inputs":[]},{"type":"error","name":"CannotClose","inputs":[]},{"type":"error","name":"CannotExtend","inputs":[]},{"type":"error","name":"DeadlinePassed","inputs":[]},{"type":"error","name":"DownvoteNoStake","inputs":[]},{"type":"error","name":"EmptyDescription","inputs":[]},{"type":"error","name":"EmptyName","inputs":[]},{"type":"error","name":"EnforcedPause","inputs":[]},{"type":"error","name":"ExceedsStake","inputs":[]},{"type":"error","name":"ExpectedPause","inputs":[]},{"type":"error","name":"GracePeriodActive","inputs":[]},{"type":"error","name":"InsufficientAllowance","inputs":[]},{"type":"error","name":"InsufficientBalance","inputs":[]},{"type":"error","name":"InsufficientProposerAllowance","inputs":[]},{"type":"error","name":"InsufficientProposerBalance","inputs":[]},{"type":"error","name":"InvalidExtensionDays","inputs":[]},{"type":"error","name":"InvalidGracePeriod","inputs":[]},{"type":"error","name":"InvalidInitialization","inputs":[]},{"type":"error","name":"InvalidInvestment","inputs":[]},{"type":"error","name":"InvalidParams","inputs":[]},{"type":"error","name":"InvalidProposal","inputs":[]},{"type":"error","name":"InvalidVoteValue","inputs":[]},{"type":"error","name":"InvestmentNotActive","inputs":[]},{"type":"error","name":"KYCAlreadyVerified","inputs":[]},{"type":"error","name":"KYCNotVerified","inputs":[]},{"type":"error","name":"MembershipFull","inputs":[]},{"type":"error","name":"NoActiveInvestments","inputs":[]},{"type":"error","name":"NoEscrowedFunds","inputs":[]},{"type":"error","name":"NoStake","inputs":[]},{"type":"error","name":"NoStakeToWithdraw","inputs":[]},{"type":"error","name":"NoUnclaimedYield","inputs":[]},{"type":"error","name":"NoYieldAvailable","inputs":[]},{"type":"error","name":"NotAFinanceManager","inputs":[]},{"type":"error","name":"NotAMember","inputs":[]},{"type":"error","name":"NotActiveMember","inputs":[]},{"type":"error","name":"NotAnAdmin","inputs":[]},{"type":"error","name":"NotCreator","inputs":[]},{"type":"error","name":"NotEnded","inputs":[]},{"type":"error","name":"NotEnoughAdmins","inputs":[]},{"type":"error","name":"NotEnoughApprovals","inputs":[]},{"type":"error","name":"NotIncomplete","inputs":[]},{"type":"error","name":"NotInitializing","inputs":[]},{"type":"error","name":"NotMember","inputs":[]},{"type":"error","name":"NotPending","inputs":[]},{"type":"error","name":"OnlyUpvoters","inputs":[]},{"type":"error","name":"ReentrancyGuardReentrantCall","inputs":[]},{"type":"error","name":"SafeERC20FailedOperation","inputs":[{"name":"token","type":"address","internalType":"address"}]},{"type":"error","name":"Unauthorized","inputs":[]},{"type":"error","name":"UnauthorizedYieldExec","inputs":[]},{"type":"error","name":"UpvoteRequiresStake","inputs":[]},{"type":"error","name":"YieldAlreadyClaimed","inputs":[]},{"type":"error","name":"YieldExceedsTotal","inputs":[]},{"type":"error","name":"ZeroAddress","inputs":[]},{"type":"error","name":"ZeroAmount","inputs":[]}],"bytecode":{"object":"0x6080806040523460ae57600180555f5160206158d45f395f51905f525460ff8160401c16609f576002600160401b03196001600160401b03821601604d575b60405161582190816100b38239f35b6001600160401b0319166001600160401b039081175f5160206158d45f395f51905f525581527fc7f505b2f371ae2175ee4913f4499e1f2633a7b5936321eed1cdaeb6115181d290602090a15f80603e565b63f92ee8a960e01b5f5260045ffd5b5f80fdfe6080806040526004361015610012575f80fd5b5f3560e01c90816302d05d3f14614bb95750806302d4545714614b9157806306fdde0314614aff57806308ae4b0c14614a8c5780630b1ca49a146149c85780630ce527011461499e5780630f55e9f21461497457806311aee3801461495757806314bfd6d0146149155780631785f53c146147d057806322ae634f146144c2578063246b0e5c146144a557806324d7806c1461446857806325b76fcb1461442757806325d5971f146143285780632a800659146142445780632d1fdef61461408157806331ae450b14614004578063359cd45e14613fbb5780633f4ba83a14613f2357806340bd2e2314613cb657806348dccf7114613c9b57806349df720814613b5f5780634c35833d14613b42578063516f279e14613ab057806353dac93014613a1657806353f0ab14146139f9578063544c97bf1461395b578063590147731461391e5780635b95b16e146138535780635c975abb146138325780636028a4ef1461358f578063665fb78e146133535780636833bb77146132bc5780636bb38b28146132c15780636e8c4c92146132bc5780636f6a169d1461329f57806370480275146131b95780637284e416146131275780637485997f14612fd1578063760121c914612ec057806378587a0a14612bd95780637967c62314612add5780637c0f6b3514612a675780638172dcba14610ab25780638456cb59146129dc57806387dbdfcb146129495780639c47b30a146128ad5780639f972814146121d5578063a13bd71c1461208d578063a1cd7e9f14612070578063a4b889b714611fcb578063a8dfd7fe14611efc578063ab87787914611c50578063abac6dad14611aff578063af38c76514611ad2578063bbb2eab914611736578063bc3f931f1461162e578063c07780f61461158b578063c11baa5e146115ab578063ca749c9914611590578063ca90b9051461158b578063cb261a0314611529578063cc2cbf721461139a578063cc4e629914611335578063cf299fd1146110aa578063d1b22b9d14610d9e578063d23254b414610d09578063d6cf209614610c18578063d9d8661014610afb578063deb62b1814610ab2578063e3ad283414610502578063ec18154e146104e5578063fd345c8a146103d25763ff78c38a14610355575f80fd5b346103ce5760203660031901126103ce576004355f52601460205260405f2080546001820154916103c46002820154916003810154600561039860048401614cc0565b92015493604051968796875260208701526040860152606085015260c0608085015260c0840190614d60565b9060a08301520390f35b5f80fd5b346103ce5760203660031901126103ce576004355f52601060205260405f208054906001810161040190614cc0565b90600281015460ff81169160038101546004820154600583015460068401546007850154600886015460ff1691600a87015493600b88015495600c89015497600d8a015499600160a01b6001900390600e0154169a6040519e8f9e8f918252602082016101e090526101e0820161047791614d60565b9d61048181614ddd565b60408201526060019060081c60ff169061049a91614de7565b60808d015260a08c015260c08b015260e08a01526101008901526104bd81614ddd565b6101208801526101408701526101608601526101808501526101a08401526101c08301520390f35b346103ce575f3660031901126103ce576020601954604051908152f35b346103ce5760e03660031901126103ce576004356001600160401b0381116103ce57610532903690600401614e36565b60243560078110156103ce57604435606435916084359060048210156103ce5760a4359360c4356001600160401b0381116103ce57610575903690600401614ea2565b335f52600b60205260ff60405f2054161580610a9d575b610a8f57610598615531565b6105a3868387615623565b15610a8057865115610a71576105ba601154615235565b958660115562015180810290808204620151801490151715610a5d576105e0904261528a565b91604051926105ee84614c14565b87845261060b60208501958a87525f604087015260608601614f80565b60808401525f60a08401525f60c08401528560e084015261010083015261063184614ddd565b836101208301526101408201525f6101608201525f6101808201525f6101a0820152426101c0820152336101e0820152845f52601060205260405f2091815183555180519060018060401b03821161093f5761069d826106946001870154614bdc565b60018701615341565b602090601f83116001146109f0576106bf92915f91836109e5575b5050615385565b60018301555b6002820160408201516106d781614ddd565b6106e081614ddd565b60ff80198354169116178155606082015160078110156109d15761ff0082549160081b169061ff0019161790556080810151600383015560a0810151600483015560c0810151600583015560e0810151600683015561010081015160078301556008820161012082015161075381614ddd565b61075c81614ddd565b60ff8019835416911617905560098201610140820151805190600160401b821161093f578254828455808310610953575b50602001915f5260205f20915f905b82821061086c57602089807fde296089731ff8a2c697646172d986c015cf0fc46770a6577661fc20a8f232d46108498e8d8d8d600e8e610160810151600a840155610180810151600b8401556101a0810151600c8401556101c0810151600d8401556101e060018060a01b039101511691019060018060a01b031660018060a01b0319825416179055855f5260108852600360405f20015490604051948594608086526080860190614d60565b928985015261085781614ddd565b604084015260608301520390a2604051908152f35b80518051906001600160401b03821161093f576108938261088d8854614bdc565b88615341565b602090601f83116001146108d657926108bc836001959460209487965f926108cb575050615385565b87555b0194019101909261079c565b015190505f806106b8565b90601f19831691875f52815f20925f5b818110610927575093602093600196938796938388951061090f575b505050811b0187556108bf565b01515f1960f88460031b161c191690558f8080610902565b929360206001819287860151815501950193016108e6565b634e487b7160e01b5f52604160045260245ffd5b835f52828060205f20019103905f5b82811061097057505061078d565b8060019183016109808154614bdc565b908161098f575b505001610962565b81601f5f931185146109a55750555b8d80610987565b818352602083206109c191601f0160051c8419019086016152d9565b808252816020812091555561099e565b634e487b7160e01b5f52602160045260245ffd5b0151905089806106b8565b9190600185015f52805f20905f935b601f1984168510610a42576001945083601f19811610610a2a575b505050811b0160018301556106c5565b01515f1960f88460031b161c19169055888080610a1a565b818101518355602094850194600190930192909101906109ff565b634e487b7160e01b5f52601160045260245ffd5b632ef1310560e01b5f5260045ffd5b635435b28960e11b5f5260045ffd5b6282b42960e81b5f5260045ffd5b506009546001600160a01b031633141561058c565b346103ce5760403660031901126103ce57610acb614d9a565b6004355f52601760205260405f209060018060a01b03165f52602052602060ff60405f2054166040519015158152f35b346103ce5760203660031901126103ce57600435335f52600b60205260ff60405f2054161580610c03575b610a8f57610b32615531565b805f52601660205260405f20805415610bf45760ff600682015416610be5575f82815260176020908152604080832033845290915290205460ff16610bd6575f8281526017602090815260408083203384529091529020805460ff191660011790556005018054909190610ba590615235565b8092556040519182527f90e65a5a1f0f2881cb733e6db6d511d2de274c963edb72732ba3cf19e584458160203393a3005b63080fc0bd60e11b5f5260045ffd5b630dc1019760e01b5f5260045ffd5b631dc0650160e31b5f5260045ffd5b506009546001600160a01b0316331415610b26565b346103ce5760203660031901126103ce57610c31614d84565b335f52600b60205260ff60405f2054161580610cf4575b610a8f57610c54615531565b6001600160a01b03165f818152600d602052604090206003015460ff1615610ce557805f52600d60205260ff60405f205460a01c16610cd657805f52600d60205260405f20600160a01b60ff60a01b198254161790557f2f96efecc5f066a5f72d6499d0f37ef0efbb94ebc5ba9deae36e7d14aad124606020604051428152a2005b633496f4c760e01b5f5260045ffd5b63148fe22160e11b5f5260045ffd5b506009546001600160a01b0316331415610c48565b346103ce5760403660031901126103ce57610d22614d9a565b6004355f52601360205260405f209060018060a01b03165f5260205260e060405f2060018060a01b0381541690600181015490600281015460ff600383015416600483015491600660ff600586015416940154946040519687526020870152604086015260608501526080840152151560a083015260c0820152f35b346103ce5760203660031901126103ce57600435610dba61554b565b610dc2615531565b805f52601660205260405f2090815415610bf457600682019060ff825416610be557600360058401541061109b5760048301546001600160a01b0316923384141580611084575b8061106f575b611060576001810180545f52601060205260405f2093600160ff600287015416610e3881614ddd565b610e4181614ddd565b610e4a81614ddd565b03611051576018546040516370a0823160e01b815260048101889052966001600160a01b0390911695906020886024818a5afa978815611003575f9861101d575b506002850197885480911061100e57604051636eb1769f60e11b815260208180610eb93087600484016153ab565b03818c5afa80156110035782915f91610fce575b5010610fbf577f417ed8551af6d1cdb7b47da8bdd5fc25afa202e4d276967d7bcd77d39bdbfe5897610f009230916155df565b610f11600a8854920191825461528a565b90556003825493845f52601460205260405f209485558754610f386001870191825461528a565b90558754610f4a83870191825461528a565b90550192610f5b84600483016153c5565b600542910155600160ff1982541617905554809454927f28d8e6772734d37b95a27185e9531f69bbb096eb4c74b5897260e60a45ef9a4e60405180610fa242878984615497565b0390a3610fb6604051928392429184615497565b0390a260018055005b63fad863f560e01b5f5260045ffd5b9150506020813d602011610ffb575b81610fea60209383614c9d565b810103126103ce578190518b610ecd565b3d9150610fdd565b6040513d5f823e3d90fd5b636f9f839560e11b5f5260045ffd5b9097506020813d602011611049575b8161103960209383614c9d565b810103126103ce57519688610e8b565b3d915061102c565b63030184d760e31b5f5260045ffd5b635a6ce09560e11b5f5260045ffd5b506009546001600160a01b0316331415610e0f565b50335f52600b60205260ff60405f20541615610e09565b63125e6df560e11b5f5260045ffd5b346103ce5760403660031901126103ce576004356001600160401b0381116103ce57366023820112156103ce5780600401356110e581614e8b565b916110f36040519384614c9d565b8183526024602084019260051b820101903682116103ce57602401915b81831061131557602435846001600160401b0382116103ce57366023830112156103ce5781600401359161114383614e8b565b926111516040519485614c9d565b8084526024602085019160051b830101913683116103ce57602401905b82821061130557505050335f52600b60205260ff60405f20541615806112f0575b610a8f5761119b615531565b80518251036112e1576111b2600f5482519061528a565b600854106112d2575f5b81518110156112d0576001600160a01b036111d78284615397565b51169081156112c157815f52600d60205260ff600360405f200154166112b25760019161127e6112078387615397565b5160036040519161121783614c30565b8483525f602080850182815260408087019485524260608801908152608088018c81528a8652600d90945293209551865460a08c901b8c90039182169119161786555190929061126990151586615297565b51888501555160028401555115159101614f56565b611287816152b4565b611292600f54615235565b600f555f51602061574c5f395f51905f526020604051428152a2016111bc565b6340803a5f60e11b5f5260045ffd5b63d92e233d60e01b5f5260045ffd5b005b63448897d760e11b5f5260045ffd5b63512509d360e11b5f5260045ffd5b506009546001600160a01b031633141561118f565b813581526020918201910161116e565b82356001600160a01b03811681036103ce57815260209283019201611110565b346103ce5760203660031901126103ce57600435600e548110156103ce57600e5481101561138657600e5f525f5160206156ec5f395f51905f5201546040516001600160a01b039091168152602090f35b634e487b7160e01b5f52603260045260245ffd5b346103ce5760403660031901126103ce576004356113b6614d9a565b90335f52600b60205260ff60405f2054161580611514575b610a8f5780158015611509575b6114fa576113e761554b565b6113ef615531565b805f526010602052600260ff8160405f2001541661140c81614ddd565b036114eb576001600160a01b0382169182156112c157815f52601460205260405f20906003820180549081156114dc5761144d6005850154601d549061528a565b42106114cd578160409360027f5388434f350d6a06a298af73c74c2a01c5b800b21268dfb84b426910dfdb112f965f6114bb95550161148d83825461528a565b9055865f526010602052600b855f20016114a883825461528a565b90556018546001600160a01b031661556b565b8151908152426020820152a360018055005b63478f84e760e01b5f5260045ffd5b63fd67680960e01b5f5260045ffd5b631a6031a360e31b5f5260045ffd5b63136ba46b60e11b5f5260045ffd5b5060115481116113db565b506009546001600160a01b03163314156113ce565b346103ce5760203660031901126103ce576001600160a01b0361154a614d84565b16805f52600d60205260ff600360405f2001541680611571575b6020906040519015158152f35b505f52600d602052602060ff60405f205460a01c16611564565b614f3b565b346103ce575f3660031901126103ce57602060405160058152f35b346103ce575f3660031901126103ce576115c3615531565b335f52600d60205260ff600360405f2001541615610ce557335f52600d602052600360405f200160ff1981541690556115fd600f54614f67565b600f556040514281527fe0c638b9625a325005e6284e1bc01fa3455c7bec5ae11bcf9de99160980ae91060203392a2005b346103ce5760403660031901126103ce57611647614d9a565b5f60c060405161165681614c82565b8281528260208201528260408201528260608201528260808201528260a082015201526004355f52601360205260405f209060018060a01b03165f5260205260e060405f206040516116a781614c82565b60018060a01b038254169182825260018101546020830190815260ff6002830154604085019081528160038501541690606086019182526004850154936080870194855260c06006856005890154169760a08a019815158952015497019687526040519788525160208801525160408701525116606085015251608084015251151560a08301525160c0820152f35b346103ce5760603660031901126103ce576004356024359060443560ff81168091036103ce57335f52600d60205260ff600360405f2001541615611ac357335f52600d60205260ff60405f205460a01c1615611ab45781158015611aa9575b6114fa576117a161554b565b6117a9615531565b815f52601060205260405f2060ff6002820154166117c681614ddd565b611a9a5760038101544211611a8b5760018211611a7c575f838152601360209081526040808320338452909152902090600183036119f75784156119e8576018546040516370a0823160e01b81523360048201526001600160a01b0390911690602081602481855afa80156110035787915f916119b3575b50106119a45760206040518092636eb1769f60e11b825281806118653033600484016153ab565b03915afa80156110035786915f9161196f575b5010611960576002820191825415158061194e575b61193f5780546001600160a01b03191633178155600181018590558254600493906118b990889061528a565b905560038101600160ff198254161790558242910155016118db84825461528a565b90556118e98360195461528a565b60195561190283303360018060a01b03601854166155df565b60405192835260208301524260408301527f8f74d45a8df9a2c9af102275bbb4540ccb175cff870770d345e5fb199d8cacfa60603393a360018055005b6370973d2560e11b5f5260045ffd5b50600160ff600383015416141561188d565b6313be252b60e01b5f5260045ffd5b9150506020813d60201161199c575b8161198b60209383614c9d565b810103126103ce5785905187611878565b3d915061197e565b631e9acf1760e31b5f5260045ffd5b9150506020813d6020116119e0575b816119cf60209383614c9d565b810103126103ce578690518861183e565b3d91506119c2565b636eb4fb7f60e11b5f5260045ffd5b60028201918254611a6d5785611a5e5760065f918260059560018060a01b03331660018060a01b0319845416178355886001840155556003810160ff19815416905542600482015584810160ff198154169055015501611a578154615235565b9055611902565b63035ed45160e51b5f5260045ffd5b637c9a1cf960e01b5f5260045ffd5b63eee3496160e01b5f5260045ffd5b63387b2e5560e11b5f5260045ffd5b633ee3282d60e11b5f5260045ffd5b506011548211611795565b63174a0ba560e31b5f5260045ffd5b631687e47360e31b5f5260045ffd5b346103ce5760203660031901126103ce576004355f52601c602052602060ff60405f205416604051908152f35b346103ce5760203660031901126103ce5760043560048110156103ce575f906001601154905b81811115611c015750611b50611b3a84614e8b565b93611b486040519586614c9d565b808552614e8b565b602084019290601f19013684375f9060015b83811115611bae578486604051918291602083019060208452518091526040830191905f5b818110611b95575050500390f35b8251845285945060209384019390920191600101611b87565b80611be2915f5260106020528260ff600260405f20015416611bcf82614ddd565b611bd881614ddd565b14611be757615235565b611b62565b80611bfb611bf486615235565b9589615397565b52615235565b805f5260106020528260ff600260405f20015416611c1e82614ddd565b611c2781614ddd565b14611c3b575b611c3690615235565b611b25565b92611c48611c3691615235565b939050611c2d565b346103ce5760603660031901126103ce576004356024356044356001600160401b0381116103ce57611c86903690600401614e36565b91335f52600c60205260ff60405f2054161580611ee5575b80611ed0575b610a8f5780158015611ec5575b6114fa57611cbd615531565b805f526010602052600160ff600260405f20015416611cdb81614ddd565b03611051578115611eb6576005600a5410611ea757611cfb601554615235565b918260155560405190611d0d82614c66565b8382526020820191838352604081019282845260608201968752608082019333855260a083015f815260c08401915f835260e0850193428552895f52601660205260405f20955186555160018601555160028501556003840198519586519960018060401b038b1161093f578a8a98611d9260209d611d8c8554614bdc565b85615341565b8c90601f8311600114611e255793611e0793611dcf8460609b9995600799955f51602061570c5f395f51905f529e9c995f926108cb575050615385565b90555b516004870180546001600160a01b0319166001600160a01b039290921691909117905551600586015551151560068501614f56565b519101556040519081523387820152426040820152a3604051908152f35b90601f19831691845f52815f20925f5b818110611e8c575084600798945f51602061570c5f395f51905f529d9b9894611e07989460609e9c9860019510611e74575b505050811b019055611dd2565b01515f1960f88460031b161c191690555f8080611e67565b8383015185558f9d5060019094019360209384019301611e35565b631fefcd9f60e31b5f5260045ffd5b631f2a200560e01b5f5260045ffd5b506011548111611cb1565b506009546001600160a01b0316331415611ca4565b50335f52600b60205260ff60405f20541615611c9e565b346103ce575f3660031901126103ce576040515f600654611f1c81614bdc565b8084529060018116908115611fa75750600114611f5c575b611f5883611f4481850382614c9d565b604051918291602083526020830190614d60565b0390f35b60065f9081525f51602061578c5f395f51905f52939250905b808210611f8d57509091508101602001611f44611f34565b919260018160209254838588010152019101909291611f75565b60ff191660208086019190915291151560051b84019091019150611f449050611f34565b346103ce575f3660031901126103ce576040515f600554611feb81614bdc565b8084529060018116908115611fa7575060011461201257611f5883611f4481850382614c9d565b60055f9081527f036b6384b5eca791c62761152d0c79bb0604c104a5fb6f4eb0703f3154bb3db0939250905b80821061205657509091508101602001611f44611f34565b91926001816020925483858801015201910190929161203e565b346103ce575f3660031901126103ce576020601d54604051908152f35b346103ce5760203660031901126103ce576004355f60e06040516120b081614c66565b8281528260208201528260408201526060808201528260808201528260a08201528260c08201520152801580156121ca575b610bf4575f52601660205260405f206040516120fd81614c66565b815481526001820154916020820192835260028101546040830190815261212660038301614cc0565b916060840192835260018060a01b0360048201541692608085019384526121a160058301549160a08701928352600760ff6006860154169460c08901951515865201549460e0880195865260405198899860208a525160208a0152516040890152516060880152516101006080880152610120870190614d60565b93516001600160a01b031660a08601525160c085015251151560e0840152516101008301520390f35b5060155481116120e2565b346103ce576101003660031901126103ce576121ef614d84565b6024356001600160401b0381116103ce5761220e903690600401614e36565b906044356001600160401b0381116103ce5761222e903690600401614e36565b906064356001600160401b0381116103ce5761224e903690600401614e36565b926084356001600160401b0381116103ce5761226e903690600401614e36565b9360a4356001600160401b0381116103ce5761228e903690600401614e36565b9360e4356001600160a01b03811693908490036103ce575f5160206157cc5f395f51905f5254604081901c60ff161595906001600160401b038116801590816128a5575b600114908161289b575b159081612892575b50612883576001600160401b031981166001175f5160206157cc5f395f51905f52558661285b575b506001600160a01b031680156112c15784156112c157600980546001600160a01b0319169190911790558051906001600160401b03821161093f57612352600254614bdc565b601f8111612816575b50602090601f83116001146127b15761237d92915f91836109e5575050615385565b6002555b8051906001600160401b03821161093f576123a6826123a1600354614bdc565b6152f4565b602090601f831160011461274c576123c792915f9183612741575050615385565b6003555b8051906001600160401b03821161093f576123e7600454614bdc565b601f81116126fc575b50602090601f83116001146126975761241292915f918361268c575050615385565b6004555b83516001600160401b03811161093f57612431600554614bdc565b601f8111612651575b50602094601f82116001146125ee5761245f9293949582915f926125e3575050615385565b6005555b82516001600160401b03811161093f5761247e600654614bdc565b601f8111612595575b506020601f82116001146125325781906124aa9394955f92612527575050615385565b6006555b60c435600855601880546001600160a01b0319169190911790556276a700601d556124d557005b60ff60401b195f5160206157cc5f395f51905f5254165f5160206157cc5f395f51905f52557fc7f505b2f371ae2175ee4913f4499e1f2633a7b5936321eed1cdaeb6115181d2602060405160018152a1005b0151905085806106b8565b601f1982169060065f52805f20915f5b81811061257d57509583600195969710612565575b505050811b016006556124ae565b01515f1960f88460031b161c19169055848080612557565b9192602060018192868b015181550194019201612542565b818111156124875760065f526125d5905f51602061578c5f395f51905f5290601f840160051c90602085106125db575b601f82910160051c0391016152d9565b84612487565b5f91506125c5565b0151905086806106b8565b601f1982169560055f52805f20915f5b88811061263957508360019596979810612621575b505050811b01600555612463565b01515f1960f88460031b161c19169055858080612613565b919260206001819286850151815501940192016125fe565b8181111561243a576126869060055f5260205f2090601f840160051c90602085106125db57601f82910160051c0391016152d9565b8561243a565b0151905087806106b8565b90601f1983169160045f52815f20925f5b8181106126e457509084600195949392106126cc575b505050811b01600455612416565b01515f1960f88460031b161c191690558680806126be565b929360206001819287860151815501950193016126a8565b828111156123f05760045f5261273b905f5160206157ac5f395f51905f5290601f850160051c90602086106125db57601f82910160051c0391016152d9565b866123f0565b0151905088806106b8565b90601f1983169160035f52815f20925f5b8181106127995750908460019594939210612781575b505050811b016003556123cb565b01515f1960f88460031b161c19169055878080612773565b9293602060018192878601518155019501930161275d565b90601f1983169160025f52815f20925f5b8181106127fe57509084600195949392106127e6575b505050811b01600255612381565b01515f1960f88460031b161c191690558880806127d8565b929360206001819287860151815501950193016127c2565b8281111561235b5760025f52612855905f5160206156ac5f395f51905f5290601f850160051c90602086106125db57601f82910160051c0391016152d9565b8861235b565b6001600160481b0319166001600160401b01175f5160206157cc5f395f51905f52558861230c565b63f92ee8a960e01b5f5260045ffd5b9050158a6122e4565b303b1591506122dc565b8891506122d2565b346103ce5760203660031901126103ce57600954600435906001600160a01b0316330361293a5762093a808110801561292d575b61291e5760407f94c6bd72c464f53a6e16286f3c83c834a3b2ee3bc1dd55b50571ad0309764e9c91601d549080601d5582519182526020820152a1005b63d7c43e0f60e01b5f5260045ffd5b506301e1338081116128e1565b6393687c0b60e01b5f5260045ffd5b346103ce5760203660031901126103ce57612962614d84565b6009546001600160a01b0316330361293a576001600160a01b03165f818152600c602052604090205460ff16156129cd57805f52600c60205260405f2060ff1981541690557f76bb6d79491c6da68a221b5e68656913a98c57c76079f10d0a47b1fb7e847fcc5f80a2005b63943ebde360e01b5f5260045ffd5b346103ce575f3660031901126103ce576009546001600160a01b0316330361293a57612a06615531565b600160ff195f5416175f557f62e78cea01bee320cd4e420270b5ea74000d11b0c9f74754ebdbfc544b05a2586020604051338152a17f6da89e41e37601c1c3b56c6d0c90cd90d1bbb5b7eb44e4d80641e91121ee58be6020604051428152a1005b346103ce575f3660031901126103ce57604051600e80548083525f91825260208301915f5160206156ec5f395f51905f5291905b818110612abe57611f5885612ab281870382614c9d565b60405191829182614df4565b82546001600160a01b0316845260209093019260019283019201612a9b565b346103ce5760203660031901126103ce576004355f60a0604051612b0081614c4b565b82815282602082015282604082015282606082015260606080820152015280158015612bce575b6114fa575f52601460205260405f20604051612b4281614c4b565b8154815260018201549160208201928352612bc3600282015491604084019283526003810154606085019081526005612b7d60048401614cc0565b926080870193845201549360a08601948552604051968796602088525160208801525160408701525160608601525160808501525160c060a085015260e0840190614d60565b905160c08301520390f35b506011548111612b27565b346103ce5760403660031901126103ce57600435612bf5614d9a565b90335f52600b60205260ff60405f2054161580612eab575b610a8f5780158015612ea0575b6114fa57612c2661554b565b612c2e615531565b805f52601060205260405f2060ff600282015416612c4b81614ddd565b60018114159081612e8b575b50610a8057815f52601c60205260ff60405f205416926003841015612e7c57825f52601a60205260405f20548015612e6d576001850160ff8111610a5d57845f52601b60205260ff60405f2054911695600187145f14612db65750601e810290808204601e1481151715610a5d57612cd76064612cdc9304938492614f73565b61528a565b600484015410612da7578015611eb6577ffb350cef5f96619ae823583baae69fdcfdb6d0ff2bbcd8b2c33b8e4e9be8ca61926040926001600160a01b038116612d9f5750600e01546001600160a01b0316905b601854612d4890829084906001600160a01b031661556b565b845f52601a602052825f20612d5e828254614f73565b9055845f52601c602052825f208660ff19825416179055612d8181601954614f73565b601955825195865260208601526001600160a01b031693a360018055005b905090612d2f565b63bcf01a7b60e01b5f5260045ffd5b60028703612de45750602881029080820460281481151715610a5d57612cd76064612cdc9304938492614f73565b905f916001811015612e4f575b60021115612e25575b612cdc9180821115612e1b57612e13612cd79183614f73565b938492614f73565b50612cd75f612e13565b6028810281810460281482151715610a5d57612cdc926064612e4892049061528a565b9150612dfa565b9150601e8102818104601e1482151715610a5d576064900491612df1565b63886b5d7960e01b5f5260045ffd5b63749a53d160e11b5f5260045ffd5b60029150612e9881614ddd565b141584612c57565b506011548111612c1a565b506009546001600160a01b0316331415612c0d565b346103ce5760203660031901126103ce57600435335f52600b60205260ff60405f2054161580612fbc575b610a8f5780158015612fb1575b6114fa57612f04615531565b805f52601060205260405f206002810190612f4282549160ff831690612f2982614ddd565b612f3282614ddd565b600b600a820154910154916155ca565b15612fa25760125415612f935760ff19166002179055601254612f6490614f67565b6012557f8de6488143d44b7fa431ad228e2cb37f23f7ca68e94fb3f783dc97a427c8319e6020604051428152a2005b635942272960e11b5f5260045ffd5b63194a12d360e21b5f5260045ffd5b506011548111612ef8565b506009546001600160a01b0316331415612eeb565b346103ce5760203660031901126103ce57600435335f52600b60205260ff60405f2054161580613112575b610a8f5780158015613107575b6114fa57613015615531565b805f52601060205260405f20600481019081549060068101918254600383015491101590816130fc575b5015610a80576002019081549060ff821661305981614ddd565b611a9a5784937fbedc4e5ac6876307c4b4b5761039aa2ebce89052490a34e15cc655d9142ba0dc93600160209460ff1916179055613098601254615235565b601255549054808210156130f557505b835f52601a82528060405f2055835f52601b82528060405f2055604051908152a27f63845abb6c5a9787d94abca8b6ebc7bf82471da0740224f90497364dd4bcd7856020604051428152a2005b90506130a8565b90504211158561303f565b506011548111613009565b506009546001600160a01b0316331415612ffc565b346103ce575f3660031901126103ce576040515f60035461314781614bdc565b8084529060018116908115611fa7575060011461316e57611f5883611f4481850382614c9d565b60035f9081525f5160206156cc5f395f51905f52939250905b80821061319f57509091508101602001611f44611f34565b919260018160209254838588010152019101909291613187565b346103ce5760203660031901126103ce576131d2614d84565b6009546001600160a01b0316330361293a576001600160a01b0381169081156112c157815f52600b60205260ff60405f205416613290575f828152600b60205260409020805460ff19166001179055600a5490600160401b82101561093f5761324682600161326a9401600a55600a614dc8565b9080546001600160a01b0360039390931b83811b199091169290931690921b179055565b7f44d6d25963f097ad14f29f06854a01f575648a1ef82f30e562ccd3889717e3395f80a2005b631c3681a560e11b5f5260045ffd5b346103ce575f3660031901126103ce576020601554604051908152f35b614f20565b346103ce575f3660031901126103ce576040515f6007546132e181614bdc565b8084529060018116908115611fa7575060011461330857611f5883611f4481850382614c9d565b60075f9081525f51602061572c5f395f51905f52939250905b80821061333957509091508101602001611f44611f34565b919260018160209254838588010152019101909291613321565b346103ce5760403660031901126103ce576004356024356001600160401b0381116103ce57613386903690600401614ea2565b335f52600b60205260ff60405f205416158061357a575b610a8f578115801561356f575b6114fa576133b6615531565b815f526010602052600960405f200190805190600160401b821161093f5782548284558083106134f1575b50602001915f5260205f20915f905b82821061342457847fe66b42ab8634c88b48a792b3a9d2538dfbca9b892d6c7643aaf4cc4ca9b775cb6020604051428152a2005b80518051906001600160401b03821161093f576134458261088d8854614bdc565b602090601f8311600114613488579261346e836001959460209487965f9261347d575050615385565b87555b019401910190926133f0565b015190508b806106b8565b90601f19831691875f52815f20925f5b8181106134d957509360209360019693879693838895106134c1575b505050811b018755613471565b01515f1960f88460031b161c191690558a80806134b4565b92936020600181928786015181550195019301613498565b835f52828060205f20019103905f5b82811061350e5750506133e1565b80600191830161351e8154614bdc565b908161352d575b505001613500565b81601f5f931185146135435750555b8880613525565b8183526020832061355f91601f0160051c8419019086016152d9565b808252816020812091555561353c565b5060115482116133aa565b506009546001600160a01b031633141561339d565b346103ce5760403660031901126103ce576004356001600160401b0381116103ce576135bf903690600401614e36565b6024356001600160401b0381116103ce576135de903690600401614e36565b335f52600b60205260ff60405f205416158061381d575b610a8f57613601615531565b81511561380e578151916001600160401b03831161093f57613628836123a1600354614bdc565b602092601f81116001146137ad578061364a9293945f916137a2575b50615385565b6003555b8151916001600160401b03831161093f5761366a600754614bdc565b601f811161375d575b50602092601f81116001146136e6576136c292916136aa826136d0935f51602061576c5f395f51905f52975f916136db5750615385565b6007555b604051938493606085526060850190614d60565b908382036020850152614d60565b4260408301520390a1005b905083015188613644565b601f19811660075f52845f20905f5b8181106137455750826136c29594925f51602061576c5f395f51905f52976136d0956001941061372d575b5050811b016007556136ae565b8401515f1960f88460031b161c191690558780613720565b848701518355602096870196600190930192016136f5565b838111156136735760075f5261379c905f51602061572c5f395f51905f5290601f860160051c90602087106125db57601f82910160051c0391016152d9565b83613673565b905083015185613644565b601f1981169360035f52805f20905f5b8681106137f65750826001949596106137de575b5050811b0160035561364e565b8401515f1960f88460031b161c1916905584806137d1565b909160206001819285880151815501930191016137bd565b63d937d5df60e01b5f5260045ffd5b506009546001600160a01b03163314156135f5565b346103ce575f3660031901126103ce57602060ff5f54166040519015158152f35b346103ce5760403660031901126103ce5761386c614d84565b60243590335f52600b60205260ff60405f2054161580613909575b610a8f57613893615531565b6001600160a01b03165f818152600d602052604090206003015490919060ff16156138fa5760407fb28f709f51d4d794171e9d30db10ea7994ff7389ba0f96f089b9e4dd72554d4f91835f52600d602052806001835f2001558151908152426020820152a2005b6305031d1160e31b5f5260045ffd5b506009546001600160a01b0316331415613887565b346103ce5760203660031901126103ce576001600160a01b0361393f614d84565b165f52600c602052602060ff60405f2054166040519015158152f35b346103ce5760203660031901126103ce576004355f52601660205260405f208054600182015491600281015461399360038301614cc0565b9160018060a01b03600482015416926139de600583015491600760ff600686015416940154946040519889988952602089015260408801526101006060880152610100870190614d60565b93608086015260a0850152151560c084015260e08301520390f35b346103ce575f3660031901126103ce576020600854604051908152f35b346103ce5760203660031901126103ce57613a2f614d84565b6009546001600160a01b0316330361293a576001600160a01b031680156112c157805f52600c60205260ff60405f205416613aa157805f52600c60205260405f20600160ff198254161790557f523e827b00cfde26c023198872374e1daad3b202fe81de569305116b2fc4f3295f80a2005b636057e30560e11b5f5260045ffd5b346103ce575f3660031901126103ce576040515f600454613ad081614bdc565b8084529060018116908115611fa75750600114613af757611f5883611f4481850382614c9d565b60045f9081525f5160206157ac5f395f51905f52939250905b808210613b2857509091508101602001611f44611f34565b919260018160209254838588010152019101909291613b10565b346103ce575f3660031901126103ce576020601254604051908152f35b346103ce5760403660031901126103ce57613b78614d84565b335f52600b60205260ff60405f2054161580613c86575b610a8f57613b9b615531565b6001600160a01b0381169081156112c157815f52600d60205260ff600360405f200154166112b257600f5460085411156112d257613c5f90613c5a604051613be281614c30565b8481525f6020808301828152602435604080860191825242606087019081526001608088019081528b8752600d9095529420945185546001600160a01b0319166001600160a01b039190911617855590516003939190613c4490151586615297565b5160018501555160028401555115159101614f56565b6152b4565b613c6a600f54615235565b600f555f51602061574c5f395f51905f526020604051428152a2005b506009546001600160a01b0316331415613b8f565b346103ce575f3660031901126103ce57602060405160288152f35b346103ce5760203660031901126103ce5760043580158015613f18575b6114fa575f8181526013602090815260408083203384529091529020600281015415613f095760ff600360019201541603613efa57613d1061554b565b613d18615531565b805f52601060205260405f209060ff600283015416613d3681614ddd565b60018114159081613ee5575b50611051575f818152601360209081526040808320338452909152902060028101546004840154600a8501549291908015613eb457808211613e7f57613d8b84613d9093614f8c565b614f9f565b9060068101613da181548094614f73565b958615613e7057600b0193613db787865461528a565b11613e6157613dc88660059461528a565b905501600160ff19825416179055613de183825461528a565b9055805f526014602052600360405f2060028101613e0085825461528a565b905501613e0e838254614f73565b9055601854613e2990839033906001600160a01b031661556b565b6040519182524260208301527fc64c05237373d420472e7259849c0a314d9c3424021920543562ceffa9b10f9460403393a360018055005b635c1ed68560e11b5f5260045ffd5b633dfa692b60e11b5f5260045ffd5b60405162461bcd60e51b815260206004820152600d60248201526c496e76616c6964207374616b6560981b6044820152606490fd5b60405162461bcd60e51b81526020600482015260096024820152684e6f207374616b657360b81b6044820152606490fd5b60029150613ef281614ddd565b141583613d42565b63e3cfa09d60e01b5f5260045ffd5b636567cc4d60e11b5f5260045ffd5b506011548111613cd3565b346103ce575f3660031901126103ce576009546001600160a01b0316330361293a575f5460ff811615613fac5760ff19165f557f5db9ee0a495bf2e6ff9c91a7834c1ba4fdd244a5e8aa4e537bd38aeae4b073aa6020604051338152a17f3cf7f4812abee6b0b46f8d2cc840074832139c14b9f24b3f9261b62b0b0376256020604051428152a1005b638dfc202b60e01b5f5260045ffd5b346103ce5760403660031901126103ce57600435613fd7614d9a565b9080158015613ff9575b6114fa57602091613ff191615243565b604051908152f35b506011548111613fe1565b346103ce575f3660031901126103ce57604051600a80548083525f91825260208301917fc65a7bb8d6351c1cf70c95a316cc6a92839c986682d98bc35f958f4883f9d2a891905b81811061406257611f5885612ab281870382614c9d565b82546001600160a01b031684526020909301926001928301920161404b565b346103ce5760403660031901126103ce57600435602435335f52600c60205260ff60405f205416158061422d575b80614218575b610a8f578115801561420d575b6114fa576140ce615531565b815f52601060205260405f209060ff6002830154166140ec81614ddd565b611a9a5760ff6008830154169161410283614ddd565b61410b83614ddd565b600c810161411b815480956155ab565b156141fe578215928392841594856141f4575b6141e55760030192835494806141da575b156141a15762015180820291820462015180141715610a5d577f514af8ba7abbcaa858d00568e0788cd39416a39195eac9780f8730cd4fcfb103946141896141919260409661528a565b809455615235565b80915582519182526020820152a2005b60405162461bcd60e51b815260206004820152601160248201527024b73b30b634b21032bc3a32b739b4b7b760791b6044820152606490fd5b50605a82111561413f565b637a5ce64b60e11b5f5260045ffd5b50605a821161412e565b63a0ef36df60e01b5f5260045ffd5b5060115482116140c2565b506009546001600160a01b03163314156140b5565b50335f52600b60205260ff60405f205416156140af565b346103ce5760203660031901126103ce57600435335f52600b60205260ff60405f2054161580614313575b610a8f5780158015614308575b6114fa57614288615531565b805f52601060205260405f20600481015460068201546003830154911090816142fe575b5015610a8057600201805460ff81166142c481614ddd565b611a9a5760039060ff19161790557f477401ab661b0c0f9131c8b3dc7d8bf57827b759310a27e8083266956dda72be6020604051428152a2005b90504211836142ac565b50601154811161427c565b506009546001600160a01b031633141561426f565b346103ce5760203660031901126103ce576004358015801561441c575b6114fa5761435161554b565b614359615531565b805f526010602052600360ff600260405f2001541661437781614ddd565b0361440d575f81815260136020908152604080832033845290915290206002018054919082156143fe575f90556143b082601954614f73565b6019556018546143cc90839033906001600160a01b031661556b565b6040519182527f459d5aef2c549903c1eeb1736f5728845d5ccf82537ddd5bf8035795eee8926360203393a360018055005b630c8b4ebb60e01b5f5260045ffd5b63425c70e560e01b5f5260045ffd5b506011548111614345565b346103ce5760403660031901126103ce57600435614443614d9a565b908015801561445d575b6114fa57602091613ff191614fbd565b50601154811161444d565b346103ce5760203660031901126103ce576001600160a01b03614489614d84565b165f52600b602052602060ff60405f2054166040519015158152f35b346103ce575f3660031901126103ce576020601154604051908152f35b346103ce5760203660031901126103ce576004355f6101e06040516144e681614c14565b828152606060208201528260408201528260608201528260808201528260a08201528260c08201528260e0820152826101008201528261012082015260606101408201528261016082015282610180820152826101a0820152826101c08201520152801580156147c5575b6114fa575f52601060205260405f2060405161456c81614c14565b8154815261457c60018301614cc0565b9060208101918252600283015460ff811693604083019461459c81614ddd565b85526145b260ff606085019360081c1683614f80565b6003810154926080810193845260048201549360a08201948552600583015460c08301908152600684015460e084019081526007850154610100850190815260ff6008870154169161012086019261460981614ddd565b83526009870193845461461b81614e8b565b956146296040519788614c9d565b81875260208701905f5260205f205f915b8383106147a857505050506101408701948552600a8801549961016088019a8b52600b890154966101808901978852600c8a0154986101a08101998a52600d8b01549a6101c082019b8c52600160a01b6001900390600e0154169b6101e082019c8d526040519e8f92602084525160208401525160408301610200905261022083016146c591614d60565b9f516146d081614ddd565b606083015251906080016146e391614de7565b5160a08d01525160c08c01525160e08b0152516101008a0152516101208901525161470d81614ddd565b6101408801525194601f1987890301610160880152855180895260208901908060051b8a0160200197602001915f905b82821061477c57505091516101808901525050516101a0860152516101c0850152516101e0840152516001600160a01b03166102008301528190039150f35b9091929860208061479a6001938f601f199082030186528d51614d60565b9b019201920190929161473d565b6001602081926147b785614cc0565b81520192019201919061463a565b506011548111614551565b346103ce5760203660031901126103ce576147e9614d84565b6009546001600160a01b0316330361293a576001600160a01b03165f818152600b602052604090205460ff1615614906575f818152600b60205260408120805460ff191690555b600a5490818110156148ff578261484682614db0565b905460039190911b1c6001600160a01b031614614867576001915001614830565b5f198201918211610a5d5761324661488161489993614db0565b905460039190911b1c6001600160a01b031691614db0565b600a5480156148eb575f19016148ae81614db0565b81549060018060a01b039060031b1b19169055600a555b7fa3b62bc36326052d97ea62d63c3d60308ed4c3ea8ac079dd8499f1e9c4f80c0f5f80a2005b634e487b7160e01b5f52603160045260245ffd5b50506148c5565b6355098f2760e01b5f5260045ffd5b346103ce5760203660031901126103ce57600435600a548110156103ce5761493e602091614db0565b905460405160039290921b1c6001600160a01b03168152f35b346103ce575f3660031901126103ce576020600f54604051908152f35b346103ce5760203660031901126103ce576004355f52601a602052602060405f2054604051908152f35b346103ce5760203660031901126103ce576004355f52601b602052602060405f2054604051908152f35b346103ce5760203660031901126103ce576149e1614d84565b335f52600b60205260ff60405f2054161580614a77575b610a8f57614a04615531565b6001600160a01b03165f818152600d602052604090206003015460ff1615610ce557805f52600d602052600360405f200160ff198154169055614a48600f54614f67565b600f557f3ac963493df564de734d98633f1145d21512e282ba4c02d3c1011119bf7f28626020604051428152a2005b506009546001600160a01b03163314156149f8565b346103ce5760203660031901126103ce576001600160a01b03614aad614d84565b165f52600d60205260a060405f2080549060018101549060ff60036002830154920154169160ff60405194600180881b0381168652861c16151560208501526040840152606083015215156080820152f35b346103ce575f3660031901126103ce576040515f600254614b1f81614bdc565b8084529060018116908115611fa75750600114614b4657611f5883611f4481850382614c9d565b60025f9081525f5160206156ac5f395f51905f52939250905b808210614b7757509091508101602001611f44611f34565b919260018160209254838588010152019101909291614b5f565b346103ce575f3660031901126103ce576018546040516001600160a01b039091168152602090f35b346103ce575f3660031901126103ce576009546001600160a01b03168152602090f35b90600182811c92168015614c0a575b6020831014614bf657565b634e487b7160e01b5f52602260045260245ffd5b91607f1691614beb565b61020081019081106001600160401b0382111761093f57604052565b60a081019081106001600160401b0382111761093f57604052565b60c081019081106001600160401b0382111761093f57604052565b61010081019081106001600160401b0382111761093f57604052565b60e081019081106001600160401b0382111761093f57604052565b601f909101601f19168101906001600160401b0382119082101761093f57604052565b9060405191825f825492614cd384614bdc565b8084529360018116908115614d3e5750600114614cfa575b50614cf892500383614c9d565b565b90505f9291925260205f20905f915b818310614d22575050906020614cf8928201015f614ceb565b6020919350806001915483858901015201910190918492614d09565b905060209250614cf894915060ff191682840152151560051b8201015f614ceb565b805180835260209291819084018484015e5f828201840152601f01601f1916010190565b600435906001600160a01b03821682036103ce57565b602435906001600160a01b03821682036103ce57565b600a5481101561138657600a5f5260205f2001905f90565b8054821015611386575f5260205f2001905f90565b600411156109d157565b9060078210156109d15752565b60206040818301928281528451809452019201905f5b818110614e175750505090565b82516001600160a01b0316845260209384019390920191600101614e0a565b81601f820112156103ce578035906001600160401b03821161093f5760405192614e6a601f8401601f191660200185614c9d565b828452602083830101116103ce57815f926020809301838601378301015290565b6001600160401b03811161093f5760051b60200190565b9080601f830112156103ce578135614eb981614e8b565b92614ec76040519485614c9d565b81845260208085019260051b820101918383116103ce5760208201905b838210614ef357505050505090565b81356001600160401b0381116103ce57602091614f1587848094880101614e36565b815201910190614ee4565b346103ce575f3660031901126103ce576020604051601e8152f35b346103ce575f3660031901126103ce57602060405160038152f35b9060ff801983541691151516179055565b8015610a5d575f190190565b91908203918211610a5d57565b60078210156109d15752565b81810292918115918404141715610a5d57565b8115614fa9570490565b634e487b7160e01b5f52601260045260245ffd5b805f52601060205260405f209160405191614fd783614c14565b83548352614fe760018501614cc0565b6020840152600284015461501760ff80831692604087019361500881614ddd565b845260081c1660608601614f80565b6003850154608085015260048501549360a08101948552600586015460c0820152600686015460e0820152600786015461010082015260ff60088701541661505e81614ddd565b61012082015260098601805461507381614e8b565b916150816040519384614c9d565b81835260208301905f5260205f205f915b8383106152185750505050610140820152600a8601546101608201908152600b870154610180830152600c8701546101a0830152600d8701546101c0830152600e909601546001600160a01b03166101e09091015280516001906150f581614ddd565b6150fe81614ddd565b141590816151f9575b506151dc575f52601360205260405f209060018060a01b03165f5260205260405f20906040519261513784614c82565b60018060a01b0383541684526001830154602085015260028301549283604086015260c0600660ff600384015416928360608901526004810154608089015260ff600582015416151560a08901520154950194855283159081156151ed575b506151dc5781511580156151e4575b6151dc576151c0926151b8915190614f8c565b905190614f9f565b9051808211156151d6576151d391614f73565b90565b50505f90565b505050505f90565b508051156151a5565b6001915014155f615196565b600291505161520781614ddd565b61521081614ddd565b14155f615107565b60016020819261522785614cc0565b815201920192019190615092565b5f198114610a5d5760010190565b805f526010602052600360ff600260405f2001541661526181614ddd565b036151d6575f52601360205260405f209060018060a01b03165f52602052600260405f20015490565b91908201809211610a5d57565b805460ff60a01b191691151560a01b60ff60a01b16919091179055565b600e5490600160401b82101561093f57613246826001614cf89401600e55600e614dc8565b5f5b8281106152e757505050565b5f828201556001016152db565b601f8111615300575050565b81811161530b575050565b60035f52614cf8915f5160206156cc5f395f51905f5291601f820160051c916020116125db57601f82910160051c0391016152d9565b91601f821161534f57505050565b80821161535b57505050565b614cf8925f5260205f20916020601f830160051c92106125db57601f82910160051c0391016152d9565b8160011b915f199060031b1c19161790565b80518210156113865760209160051b010190565b6001600160a01b0391821681529116602082015260400190565b919091828114615492576153d98354614bdc565b6001600160401b03811161093f576153fb816153f58454614bdc565b84615341565b5f93601f821160011461542c5761541d92939482915f92615421575050615385565b9055565b015490505f806106b8565b601f198216905f5260205f2094835f5260205f20915f5b81811061547a57509583600195969710615462575b505050811b019055565b01545f1960f88460031b161c191690555f8080615458565b9192600180602092868b015481550194019201615443565b509050565b939291908452606060208501525f8154916154b183614bdc565b928360608801526001811690815f1461551057506001146154d7575b5060409150930152565b90505f5260205f205f905b8282106154f957506040915084016080015f6154cd565b600181602092546080858a010152019101906154e2565b905060809250604093915060ff191682870152151560051b8501015f6154cd565b60ff5f541661553c57565b63d93c066560e01b5f5260045ffd5b60026001541461555c576002600155565b633ee5aeb560e01b5f5260045ffd5b60405163a9059cbb60e01b60208201526001600160a01b039092166024830152604480830193909352918152614cf8916155a6606483614c9d565b615653565b60ff6001916155b981614ddd565b16116155c55760031190565b505f90565b6001906155d681614ddd565b036151d6571490565b6040516323b872dd60e01b60208201526001600160a01b039283166024820152929091166044830152606480830193909352918152614cf8916155a6608483614c9d565b156151d6576064106155c5578015908115615647575b5061564357600190565b5f90565b61016d9150115f615639565b905f602091828151910182855af115611003575f513d6156a257506001600160a01b0381163b155b6156825750565b635274afe760e01b5f9081526001600160a01b0391909116600452602490fd5b6001141561567b56fe405787fa12a823e0f2b7631cc41b3ba8828b3321ca811111fa75cd3aa3bb5acec2575a0e9e593c00f959f8c92f12db2869c3395a3b0502d05e2516446f71f85bbb7b4a454dc3493923482f07822329ed19e8244eff582cc204f8554c3620c3fdaa345e06f0f866c55fb2e9ad3a43b90c46c8a2d18568df9f7ea88a7bb1639f7aa66cc928b5edb82af9bd49922954155ab7b0942694bea4ce44661d9a8736c688ede8eed4383e9241982619b94dd83e488b274cced0fd07b8c0092a393defd52feaaa81a7e1b42dc1acd4c2ef6ff8dd0ab5030cde793bec8e25316d66f22181e0f652222313e28459528d920b65115c16c04f3efc82aaedc97be59f3f377c0d3f8a35acfbc15ff81a39ae7d344fd709f28e8600b4aa8c65c6b64bfe7fe36bd19bf0c57e16840df040f15088dc2f81fe391c3923bec73e23a9662efc9c229c6a00a2646970667358221220b112d15268608204a1d01cf315e4f1bbc18536c0127713147a5e56316f1c006264736f6c63430008210033f0c57e16840df040f15088dc2f81fe391c3923bec73e23a9662efc9c229c6a00","linkReferences":{}},"methodIdentifiers":{"MAX_EXTENSIONS()":"c07780f6","PHASE1_PERCENT()":"6833bb77","PHASE2_PERCENT()":"48dccf71","PHASE3_PERCENT()":"6e8c4c92","REQUIRED_ADMIN_COUNT()":"ca749c99","REQUIRED_YIELD_APPROVALS()":"ca90b905","activateInvestment(uint256)":"7485997f","activeInvestmentCount()":"4c35833d","addAdmin(address)":"70480275","addFinanceManager(address)":"53dac930","addMember(address,bytes32)":"49df7208","admins(uint256)":"14bfd6d0","approveYieldDeposit(uint256)":"d9d86610","batchAddMembers(address[],bytes32[])":"cf299fd1","claimYield(uint256)":"40bd2e23","closeInvestment(uint256)":"760121c9","coordinates()":"a4b889b7","createInvestment(string,uint8,uint256,uint256,uint8,uint256,string[])":"e3ad2834","creator()":"02d05d3f","description()":"7284e416","escrowTotal(uint256)":"0ce52701","escrowedAmount(uint256)":"0f55e9f2","executeYieldDeposit(uint256)":"d1b22b9d","exitDAO()":"c11baa5e","extendDeadline(uint256,uint256)":"2d1fdef6","getAdmins()":"31ae450b","getAllMembers()":"7c0f6b35","getClaimableYield(uint256,address)":"25b76fcb","getInvestment(uint256)":"22ae634f","getInvestmentsByStatus(uint8)":"abac6dad","getVote(uint256,address)":"bc3f931f","getWithdrawableAmount(uint256,address)":"359cd45e","getYieldDistribution(uint256)":"7967c623","getYieldProposal(uint256)":"a13bd71c","hasApprovedProposal(uint256,address)":"deb62b18","initialize(address,string,string,string,string,string,uint256,address)":"9f972814","investmentCount()":"246b0e5c","investments(uint256)":"fd345c8a","isAdmin(address)":"24d7806c","isFinanceManager(address)":"59014773","isVerifiedMember(address)":"cb261a03","location()":"516f279e","logoURI()":"6bb38b28","markInvestmentIncomplete(uint256)":"2a800659","maxMembership()":"53f0ab14","memberAddresses(uint256)":"cc4e6299","memberCount()":"11aee380","members(address)":"08ae4b0c","name()":"06fdde03","pause()":"8456cb59","paused()":"5c975abb","postalCode()":"a8dfd7fe","proposeYieldDeposit(uint256,uint256,string)":"ab877879","releaseNextPhase(uint256,address)":"78587a0a","releasePhaseCompleted(uint256)":"af38c765","removeAdmin(address)":"1785f53c","removeFinanceManager(address)":"87dbdfcb","removeMember(address)":"0b1ca49a","setYieldGracePeriod(uint256)":"9c47b30a","sweepUnclaimedYield(uint256,address)":"cc2cbf72","totalValueLocked()":"ec18154e","unpause()":"3f4ba83a","updateDAOInfo(string,string)":"6028a4ef","updateInvestmentDocuments(uint256,string[])":"665fb78e","updateMemberKYCHash(address,bytes32)":"5b95b16e","usdcAddress()":"02d45457","verifyMemberKYC(address)":"d6cf2096","vote(uint256,uint256,uint8)":"bbb2eab9","votes(uint256,address)":"d23254b4","withdrawStake(uint256)":"25d5971f","yieldDistributions(uint256)":"ff78c38a","yieldGracePeriod()":"a1cd7e9f","yieldProposalApprovals(uint256,address)":"8172dcba","yieldProposalCount()":"6f6a169d","yieldProposals(uint256)":"544c97bf"},"id":38}